S01800006275696C642F6D6963617A2F6D61696E2E73726563E5
S11300000C9464000C94A3060C94AD060C94B706EF
S11300100C94C1060C94CB060C94D5060C943609AA
S11300200C94DF060C9483000C9483000C945517F5
S11300300C94F3180C946D060C9483060C94AA0784
S11300400C945C060C943E100C9483000C94830076
S11300500C9483000C94E9060C9483000C948300A4
S11300600C9478060C9483000C9483000C94830005
S11300700C9483000C9483000C9483000C948300F0
S11300800C9483000C9483000C948300CE102A11EA
S1130090301181119C11A311DC119912BC12D012E0
S11300A09014C3141B15441569156C157515881522
S11300B0F415251628164D16501659166C16C6102A
S11300C0F91600081C18141011241FBECFEFD0E13C
S11300D0DEBFCDBF11E0A0E0B1E0EAE4FBE300E065
S11300E00BBF02C007900D92A031B107D9F712E0FF
S11300F0A0E1B1E001C01D92AA3BB107E1F70E9463
S113010081190C94A41D0C9400008FB7F8949927BE
S113011008958FBF08958FB7F89499272BB332E0D1
S113012023272BBB8FBF0895FC0182819927582F69
S1130130442781819927482B592BCA01892F992754
S113014086958695837090708230910559F083303E
S1130150910559F0892B19F420E030E008C02CE90E
S11301603FEF05C022E030E002C028E030E0CA01E1
S113017084E0989F812D992711248230910559F0AC
S11301808330910559F0892B19F480E090E008C080
S11301908CE99FEF05C082E090E002C088E090E027
S11301A0280F391F2A5F3F4FCF01820F931F0895F5
S11301B0282F9FB7F894662349F0E82FFF27E25EC3
S11301C0FD4F8081882311F021E006C0E22FFF2734
S11301D0E25EFD4F608320E0892F99278FBF822F35
S11301E099270895E82F8FB7F894282F332790E0A4
S11301F0FF27E25EFD4F8081861709F491E02FBF4F
S1130200892F99270895882311F06E9A08956E987E
S11302100895882311F06F9A08956F98089580E0E7
S11302200E940301BA9ABB98B99AB89A6C9A80E072
S11302300E9409016B986A9881E00E940301709AF8
S11302408DB18C7F8DB908950F931F93CF93DF9356
S1130250182F8FB7F894C82FDD270C2F61E080E0AA
S11302600E94D800882321F0CFBF85E090E024C00D
S1130270809105018823A1F480911501823081F4D5
S113028009C082E080931501109205010E940F01BC
S1130290B89AC0981093020180E00FBF99270CC050
S11302A080911501882369F38FB7F89499271092E8
S11302B01E028FBF81E0F1CFDF91CF911F910F918B
S11302C00895282F9FB7F894E82FFF27E85BFE4F87
S11302D080818F3F81F4E091B702E21771F40BC083
S11302E02093890204C0FF27E85BFE4F20832093FC
S11302F0B70220E007C025E005C0809189028F3F46
S113030091F7EECF892F99278FBF822F99270895D0
S11303101F93182F81E00E9403011FB9779BFECF22
S11303208FB199271F9108958F929F92AF92BF9298
S1130330CF92DF92EF92FF920F931F93CF93DF93AD
S11303408FB7F8949927C090B102D090B2028090F0
S1130350150290901602C091EA01D091EB01209110
S11303602C0130912D01EAE0AE2EB12CAC0EBD1E55
S11303702A153B0508F459018FBF7401EC0EFD1ECC
S113038086010C0F1D1F14C0C114D10419F0F8010B
S1130390808101C080E00E9488018114910411F0E1
S11303A0F701808321960894E11CF11C0F5F1F4F15
S11303B0C5010197C817D90738F381E00E940901E4
S11303C09FB7F894C114D10431F0CC0EDD1EF601B0
S11303D080818FB901C01FB8D093EB01C093EA01AB
S11303E0892F99278FBF80E090E0DF91CF911F91F3
S11303F00F91FF90EF90DF90CF90BF90AF909F90C0
S11304008F9008952FB7F894332750932D0140937C
S11304102C019093B2028093B10270931602609300
S113042015021092EB011092EA012FBF452B29F01F
S11304308FB10E9494019927089587E00E94610179
S113044080E090E008958FB7F894992710922002E5
S11304508FBF0895982F969596959695E6E4F1E0CA
S1130460E90FF11D877021E030E002C0220F331F35
S11304708A95E2F780818223992708950F931F9329
S1130480CF93DF93182F8FB7F894282F3327022F99
S113049080912301882359F581E0809323011093EF
S11304A079012FBF8FB7F8949927379A8FBF8FB7E9
S11304B0F894C82FDD279C2F80910D018230A9F478
S11304C080912301813021F482E10E94610109C0FD
S11304D0823059F48091790180930D0183E08093F7
S11304E02301CFBF80E090E025C09FBFFBCF809168
S11304F07901811711F42FBFF5CF812F0E942A02B1
S1130500882319F085E090E014C0E12FE695E69584
S1130510E695FF27EA5BFE4F177081E090E002C08A
S1130520880F991F1A95E2F72081282B208380E0F9
S113053090E00FBFDF91CF911F910F9108958091AB
S11305402801882319F081E090E0089581E00E9459
S11305503E029927282F882319F481E080932801EB
S1130560822F99270895982F969596959695EDE65E
S1130570F1E0E90FF11D877021E030E002C0220FA5
S1130580331F8A95E2F780818223992708959FB7C4
S1130590F894292F3327422F90910D01981741F495
S11305A080912301833021F42FBF81E090E00895EE
S11305B04FBF80E090E0089580918C02882311F071
S11305C0813011F478E008C0882329F0813019F0D3
S11305D02FE170E002C070E021E0622FEFB7F894E1
S11305E080916C018E7F80936C0187B1982F9F71ED
S11305F0829586958695837019F080E090E012C00C
S1130600822F8850863118F081E090E00BC040E0E2
S113061050E03327892F99272817390711F441E02F
S113062050E0CA01982F9170990F80916C018178E4
S1130630262F2F71422F440F440F892B842B809334
S11306406C01332727B9783059F580918A0290914B
S11306508B0221E08638920718F087E090E01FC0F3
S1130660833C910518F086E090E019C0813691052D
S113067018F085E090E013C08033910518F084E011
S113068090E00DC08831910518F083E090E007C038
S11306900C9718F082E090E002C080E090E0782FA0
S11306A07770887D872B886D992786B98E2F992737
S11306B08FBF0895EF920F931F93AE2D99E0899FFA
S11306C0F0011124EF50FE4F408351836283738302
S11306D00483158326833783A17080858E7F8A2BBC
S11306E0826080878BE00E9461011F910F91EF90DF
S11306F008957FB7F89462B720912F0130913001AB
S1130700409131015091320106B601FE0FC081B70C
S113071092B7280F311D411D511D2F5F3F4F4F4F81
S11307205F4F290F311D411D511D04C0260F311D7E
S1130730411D511D872F99278FBFCA01B901089503
S113074080912001882319F081E090E0089580E0F1
S11307500E943E029927282F882319F481E0809370
S11307602001822F99270895982F9695969596950E
S1130770E0EFF1E0E90FF11D877021E030E002C005
S1130780220F331F8A95E2F78081822399270895E7
S1130790DF92EF92FF920F931F938FB7F894282F55
S11307A03327D22E91B782B746B7981711F041FF7D
S11307B002C02FBF6AC08091E9018823E1F10E9441
S11307C07903E0901A02F0901B0200911C02109130
S11307D01D02209141013091420140914301509109
S11307E044016E197F09800B910B6217730784070C
S11307F0950720F01092E90171E01EC02E0D3F1DF7
S1130800401F511F80912F0190913001A09131011F
S1130810B0913201281B390B4A0B5B0B273E310583
S11308204105510540F4822F223010F070E005C0DC
S113083070E082E002C070E086EE682F615000B67E
S113084001FCFDCF82B7681709F46F5F20912F0177
S1130850309130014091310150913201DA01C901E6
S11308600196A11DB11D860F911DA11DB11D8217F9
S11308709307A407B50710F4622F609561BFDFBE2C
S1130880772319F08AE00E9461011F910F91FF9074
S1130890EF90DF900895AFB7F894BB27E1E0E093C1
S11308A0E90160931A0270931B0280931C029093D7
S11308B01D02209341013093420140934301509320
S11308C04401AFBF0E94C803089580E880934501A6
S11308D01092760110928D021092880210926F018C
S11308E00895CF93DF93FC0115A6DC019E96ED01DC
S11308F01B821A82198280E886A7DF91CF9108951E
S11309002F923F924F925F926F927F928F929F921B
S1130910AF92BF92CF92DF92EF92FF920F931F9309
S1130920CF93DF93CDB7DEB728970FB6F894DEBF29
S11309300FBECDBF20907D0130907E0140907F019D
S113094050908001662477248824BEE4AB2EA3E86B
S1130950BA2ECC24DD24EE24FF2400E010E0222D66
S1130960332D442D552D662D772D882D90E00E9432
S1130970861B29833A834B835C836D837E838F83B9
S11309809887822E932EA42EB52E2401350100E2E1
S11309900E94841CA22EB32EC42ED52EC301B201F4
S11309A096958795779567956A0D7B1D8C1D9D1D82
S11309B097FF05C09F776F5F7F4F8F4F9F4F609367
S11309C07D0170937E0180937F019093800128962E
S11309D00FB6F894DEBF0FBECDBFDF91CF911F914C
S11309E00F91FF90EF90DF90CF90BF90AF909F90CA
S11309F08F907F906F905F904F903F902F900895CD
S1130A008FB7F8946091EE017091EF012CB53DB56C
S1130A1006B602FE04C06F5F7F4F2CB53DB5992723
S1130A208FBF88279927CB01772766274427552727
S1130A30622B732B842B952B0895EF92FF920F93C7
S1130A401F930E9400057B018C0120918801309145
S1130A50890140918A0150918B0180918301909189
S1130A608401A0918501B0918601820F931FA41F78
S1130A70B51FE216F3060407150730F08217930733
S1130A80A407B50758F005C082179307A407B50754
S1130A90E0F5E816F9060A071B07B8F59C01AD0155
S1130AA02E193F09400B510B213060E8360760E0F6
S1130AB0460760E0560768F180E090E8A0E0B0E007
S1130AC0E80EF91E0A1F1B1FE0928801F0928901AB
S1130AD000938A0110938B0180E090E8AFEFBFEFA1
S1130AE0E80EF91E0A1F1B1F20503048404050409A
S1130AF020938301309384014093850150938601B0
S1130B0020E030E840E050E014C020E030E040E075
S1130B1050E08093880190938901A0938A01B09357
S1130B208B0110928301109284011092850110921E
S1130B308601A901B7012CB53DB5C9018E199F09DC
S1130B4003968417950720F0B9016D5F7F4F02C0AB
S1130B50640F751F6115710511F461E070E0615057
S1130B6070407BBD6ABD80E186BF87B7806187BF67
S1130B701F910F91FF90EF9008950F931F930FB75C
S1130B80F8941127609388017093890180938A01F6
S1130B9090938B01209383013093840140938501CA
S1130BA0509386010E941D050FBF1F910F91089558
S1130BB0CF92DF92EF92FF920F931F93CF93DF9325
S1130BC08C01F62E6A01E22E8FB7F894C82FDD2728
S1130BD060E080E00E94F200882321F0CFBF80E033
S1130BE090E01EC0CFBF0F0D111D802F80680E94A2
S1130BF08801F82E16950795802F807C0E94880125
S1130C000E2D0AC0EE2DFF27E01BF109EC0DFD1D92
S1130C1080810E94880101500023A1F78F2D99271C
S1130C20DF91CF911F910F91FF90EF90DF90CF90C4
S1130C30089597B79F7D97BF90E296BF882319F0D8
S1130C408EB5806402C08EB58F7B8EBD87B78062FF
S1130C5087BF80E090E00895AF92BF92CF92DF9279
S1130C60EF92FF920F931F93CF93DF93CDB7DEB72D
S1130C7028970FB6F894DEBF0FBECDBF20E070E01A
S1130C80E0910001F091010132E14DE65CE46FE492
S1130C90809101019E2F28960FB6F894DEBF0FBEF7
S1130CA0CDBFDF91CF911F910F91FF90EF90DF9017
S1130CB0CF90BF90AF9008951F920F920FB60F92EE
S1130CC011248F9383B783BF00B600FCFDCF8F91AF
S1130CD00F900FBE0F901F90189578941F920F924B
S1130CE00FB60F9211240F900FBE0F901F901895FE
S1130CF078941F920F920FB60F9211240F900FBE8B
S1130D000F901F90189578941F920F920FB60F9220
S1130D1011242F933F938F939F932FB7F8943327E6
S1130D208091EE019091EF0101969093EF018093F1
S1130D30EE012FBF9F918F913F912F910F900FBE86
S1130D400F901F9018951F920F920FB60F921124B7
S1130D500F900FBE0F901F9018951F920F920FB611
S1130D600F9211240F900FBE0F901F9018951F9291
S1130D700F920FB60F9211240F900FBE0F901F9079
S1130D8018951F920F920FB60F9211240F900FBE59
S1130D900F901F9018951F920F920FB60F92112467
S1130DA00F900FBE0F901F9018951F920F920FB6C1
S1130DB00F9211240F900FBE0F901F9018951F9241
S1130DC00F920FB60F9211240F900FBE0F901F9029
S1130DD018951F920F920FB60F9211242F933F93E1
S1130DE04F935F936F937F938F939F93AF93BF932F
S1130DF0EF93FF9344B155B178948FB7F894992742
S1130E0020916C01322F3695317021708FBF2223CF
S1130E1091F5339880919401813021F0823009F06A
S1130E2050C008C0332341F0509318024093170276
S1130E3083E11EC0332319F40E94DC0242C01092E5
S1130E40940180918C02882321F0813009F039C00B
S1130E5008C010928101509368014093670181E1B9
S1130E6007C01092730150938F0240938E0288E161
S1130E700E94610126C08FB7F89499278FBF2FB7BE
S1130E80F894332786B1582F5770482F4072987DB5
S1130E90942B952B8074977B982B90619F77892F47
S1130EA0992786B9887D842B852B87738061992740
S1130EB086B9887D842B852B877B8069992786B9A1
S1130EC02FBFFF91EF91BF91AF919F918F917F9130
S1130ED06F915F914F913F912F910F900FBE0F90A3
S1130EE01F901895CF93DF93CDB7DEB72C970FB62D
S1130EF0F894DEBF0FBECDBF8FB7F894282FAE0194
S1130F004F5F5F4FDA01E4E2F2E088E001900D9276
S1130F108150E1F780917701909178018987892F39
S1130F2099278A8780918C0190918D018B87892FD5
S1130F3099278C872FBF2CE060E080E691E00E9427
S1130F40D8052C960FB6F894DEBF0FBECDBFDF9147
S1130F50CF9108951F920F920FB60F9211242F93E1
S1130F603F934F935F936F937F938F939F93AF932D
S1130F70BF93EF93FF9383B783BF00B600FCFDCF0D
S1130F8081B799270196AA27BB2720912F01309179
S1130F9030014091310150913201280F391F4A1F0D
S1130FA05B1F20932F013093300140933101509304
S1130FB0320178940E94C803FF91EF91BF91AF91E1
S1130FC09F918F917F916F915F914F913F912F915D
S1130FD00F900FBE0F901F901895EF92FF920F93F2
S1130FE01F93CF93DF93982F8FB7F894E82E8091B7
S1130FF02301833009F045C080910D01891709F060
S113100040C080914601882309F046C03EC0EF2DC0
S1131010E695E695E695FF274F2D5527EA5BFE4FAB
S11310209A012770307081E090E002C0880F991F08
S11310302A95E2F78095208128232083C0932201FA
S113104011C02196C230D10511F4C0E0D0E0FC2ECD
S11310508C2F0E942A028823D1F6C017D10789F762
S11310604FEF50E0409379018FEF80930D0181E0C1
S11310708093230182E10E946101EFBE80E090E051
S113108011C0EFBE81E090E00DC082E080930D01BD
S1131090109223013798F1CF80912201082F112754
S11310A0E801CFCFDF91CF911F910F91FF90EF9087
S11310B008950F931F93182F0FB7F89461E080E001
S11310C00E94D800882371F51093020180910501D4
S11310D08823A9F580911501823089F586E00CC03A
S11310E00E940F0180911501882349F481E08093C7
S11310F015011092700188E00E9461012AC080915C
S113110087018F3F31F5E0910401EE2311F11CC0FA
S11311101092030104C0FF27E957FE4F108210927A
S1131120040117C081E090E002C0880F991F1A954E
S1131130E2F720911401282B209314010AC0809116
S113114015018823E1F6CCCF809103018F3F19F775
S1131150DFCF802F99278FBF80E090E01F910F9100
S113116008951F9383E00E9424019927182F882350
S113117019F083E00E945908812F99271F9108953F
S11311801F93CF93DF93182F8FB7F894C82FDD27C1
S113119060E080E00E94F200882321F0CFBF80E06D
S11311A090E005C0CFBF812F0E9488019927DF916D
S11311B0CF911F910895EF92FF920F931F93CF93B6
S11311C0DF93182F7B01042F8FB7F894C82FDD27E6
S11311D060E080E00E94F200882321F0CFBF80E02D
S11311E090E014C0CFBF1064812F99279093910190
S11311F0809390010E948801182F402F5527B70132
S113120080E090E00E940202812F9927DF91CF9124
S11312101F910F91FF90EF900895C09860912A015B
S113122070912B0141E08FE30E94DB08089582E076
S113123090E0909364018093630181E08093760150
S113124020E030E080910201843011F421E030E0AC
S1131250232B29F484E00E942401882319F40E949A
S11312600D09089584E00E94590808951F920F9271
S11312700FB60F9211242F933F934F935F936F9365
S11312807F938F939F93AF93BF93EF93FF9380913B
S1131290630190916401019749F482E090E0909396
S11312A06401809363010E94170905C080916F0156
S11312B08F5F80936F01FF91EF91BF91AF919F91E9
S11312C08F917F916F915F914F913F912F910F90EB
S11312D00FBE0F901F9018951F93809114018823BF
S11312E009F04BC0109102011F3F09F046C060E0B5
S11312F00E94F200882309F440C081E080932E020A
S1131300809147018823E1F110922E0285E090E05C
S113131045C0923069F5C09A8091030120E030E025
S11313208F3F11F421E030E0232BE9F41093050101
S11313308F3F19F42FEF30E00DC0282F3327F90128
S1131340E957FE4F8081809303018F3F11F410937E
S1131350040110832093700181E08093150188E0DB
S11313600E94610105C0109305011092150111C07E
S113137080911501882369F00FC081E090E00EC0D0
S11313808091050190911501882319F2923021F082
S1131390EFCF80E00E94030180E090E01F91089568
S11313A01F93CF93DF939FB7F894C92FDD271C2F8A
S11313B090910201981721F0CFBF81E090E03AC0EC
S11313C08FEF80930201309114013323F1F48FB72E
S11313D0F894992710921E028FBF0E946C09CFBF08
S11313E011C02093020181E090E002C0880F991F90
S11313F04A95E2F7809538233093140186E00E94E1
S113140061011FBF80E090E015C080E065E0E32F3C
S1131410FF270E94071D292F492F5527CF01042E8E
S113142002C0959587950A94E2F780FDDACF822F62
S11314308F5FEFCFDF91CF911F9108951F93CF93CB
S1131440DF938FB7F894C82FDD271C2F8091630199
S113145090916401892B29F484E00E94D009CFBFC4
S11314601EC01092760180916F01882311F0B79904
S113147004C00E9908C0882319F0815080936F012D
S11314800E9417090BC081E090E09093640180935F
S1131490630110926F0184E00E94D0091FBFDF91A5
S11314A0CF911F9108950E946504C09AC09888E066
S11314B00E94C00888E00E94C008C09A84E00E948C
S11314C0D0090E941E0A0895FF920F931F93CF9391
S11314D0DF93F82E8B018FB7F894C82FDD2760E0D7
S11314E080E00E94F200882321F0CFBF80E090E0EA
S11314F00CC0CFBF8F2D0E948801812F99270E9495
S11315008801802F0E9488019927DF91CF911F9134
S11315100F91FF9008951F931FB7F89480916E0167
S1131520882319F460E070E009C060E08091B002A3
S1131530882309F461E081E06827772780917A01A4
S1131540882319F480E090E00AC090E0809123029F
S1131550882309F491E081E09827892F9927762F31
S11315606627770F770F770FF4E0880F991FFA95A6
S1131570E1F7826E9262682B792B81E10E94640A02
S1131580812F99278FBF1F9108958FB7F8949927BA
S113159060912D028FBF85E0689FB0011124625DC8
S11315A07E4F706488E10E94640A0895EF92FF926E
S11315B01F93CF93DF93E0907B01F0907C01F701C0
S11315C082A59927182F882309F41FE1C0988091D8
S11315D06B01811749F0612F77276F717070606E0E
S11315E0706885E10E94640A10936B01F701108111
S11315F08FB7F894C82FDD2760E080E00E94F200E6
S1131600882311F0CFBF12C0CFBF8EE390E0909338
S11316109101809390018EE30E9488011150412F23
S1131620552760E070E0C7010E940202DF91CF916C
S11316301F91FF90EF9008950F931F93CF93DF9323
S1131640EC010FB7F89411270E949400FC018FE37A
S113165080830FBF1092AE021092AD0261E082E06F
S11316600E94D800882319F085E090E072C0809130
S11316702F028F5F80932F0281508B838FB7F89452
S1131680082F112762E081E00E94F200882329F4E8
S11316900FBF0E94230281E05BC08FB7F8949927A3
S11316A024E020931F028FBFD0939801C093970129
S11316B00FBFFE013196818129819927982F8827B0
S11316C03327822B932B80729C7C8983892F9927C3
S11316D081832981982F882733272164822B932B98
S11316E08983892F992781831CA618A619A619AA6C
S11316F018AA1FA680E88EA761E060932202409199
S11317009701509198018FB7F894282F332780912F
S11317101601909117018830910511F0019711F08D
S11317202FBF15C082E090E09093170180931601BB
S11317306093B80250937C0140937B0110922E0178
S11317402FBF0E94B108882311F40E94D60A80E0BA
S11317509927DF91CF911F910F910895CF93DF9334
S1131760DA01422F2D3118F082E090E05EC0ED01E5
S11317708B876E83872F99278F832FB7F89433270E
S113178080917701909178012FBFFD018483892F87
S1131790992785832FB7F894332780910601909178
S11317A007012FBF8887892F9927898731968181DF
S11317B029819927982F8827332720643868822B1A
S11317C0932B8983892F99278183435F4C934D50B1
S11317D080910901882359F010920901642FCD01E9
S11317E00E941C0B9927282F8823A9F417C0842F43
S11317F099279093960180939501B0931B01A09330
S11318001A018CE00E94610180910901882349F446
S113181089E090E00AC08FEF80930901822F992715
S113182004C01092820180E090E0DF91CF9108958E
S11318301F93A1ECB1E0FC018CE101900D92815069
S1131840E1F712E045EB51E08FEF8093BB01809309
S1131850BC018AE88093C0018091EC019091ED0174
S1131860892B21F55093ED014093EC0189E280939B
S1131870B50180910F01882301F110920F012CE131
S11318806FEF7FEF8AE80E94AE0B9927282F8823F9
S1131890A1F081E080930F011092ED011092EC0110
S11318A0822F9927882349F0813019F0115050F67E
S11318B001C0DA9880E090E002C081E090E01F91DE
S11318C00895AF92BF92CF92DF92EF92FF920F935F
S11318D01F93CF93DF935B016C01C0E0D0E0E1EF95
S11318E0F1E0608561FF28C120813181428153810B
S11318F0E480F58006811781D601C501821B930B14
S1131900A40BB50B8E159F05A007B10708F414C1ED
S113191060FF03C06D7F608708C02E0D3F1D401F10
S1131920511F2083318342835383C23009F490C012
S1131930C33009F4C7C0C13009F004C180917101FA
S11319408A3068F089E991E00E94180C882339F004
S1131950109271018091A0018F5F8093A00180910A
S1131960B3028A3068F081E992E00E94180C88235F
S113197039F01092B302809198028F5F809398029D
S11319808FB7F894282F3327122F80911D018823B5
S113199089F491E090931D0110922C022FBF809145
S11319A01E01882321F48EE00E9461011CC09093E3
S11319B01F0119C080912C02882311F42FBF13C07A
S11319C080E00E94B403882319F085E090E007C00A
S11319D08091F00181608093F00180E090E01FBF6E
S11319E0892B09F0DA988FB7F894282F3327122F10
S11319F080912501882389F491E090932501109228
S1131A0065012FBF80912601882321F485E10E947E
S1131A10610198C09093270195C080916501882346
S1131A2011F42FBF8FC080E00E94B302882319F005
S1131A3085E090E007C080916D01816080936D0125
S1131A4080E090E01FBF892B09F47CC0DA987AC04B
S1131A509FB7F89420911D01222319F421E030E06E
S1131A600FC080910C01813019F020E030E008C0F3
S1131A7040E050E02150223010F441E050E09A015F
S1131A80892F99278FBF222309F45CC08FB7F8945C
S1131A90082F1127902F80910C01813009F04AC042
S1131AA080911D01813011F48DE037C0823009F03E
S1131AB041C080912C0280930C0183E080931D012E
S1131AC00FBF40C09FB7F89420912501222319F439
S1131AD021E030E00FC080910E01813019F020E048
S1131AE030E008C040E050E02150223010F441E0E2
S1131AF050E09A01892F99278FBF222319F18FB7BC
S1131B00F894082F1127902F80910E01813091F4C1
S1131B1080912501813021F484E10E946101D0CFBC
S1131B20823041F48091650180930E0183E08093BB
S1131B302501C6CF9FBF06C021963996C430D10572
S1131B4009F0CFCE8BE00E946101DF91CF911F910C
S1131B500F91FF90EF90DF90CF90BF90AF900895DA
S1131B600F931F93182F042FE82FFF27EE0FFF1F4B
S1131B70E451FE4F1182108210920F01E091EC01AA
S1131B80F091ED01309721F08091900280FF10C018
S1131B9081E080930F0103C08AE10E946101112357
S1131BA0C9F4002319F40E948B0014C0DA9812C0FF
S1131BB06781868120812D5033277727762F6627EA
S1131BC09927682B792BAF0183850E94AE0B88235C
S1131BD031F3E2CF1F910F9108959B0180910F0182
S1131BE0882349F46091EC017091ED016217730749
S1131BF011F40E94B00D08951F93182F81E090E016
S1131C009093170180931601109247010E946C096A
S1131C108FB7F8949927109310018FBF82E00E9428
S1131C2061011F910895CF92DF92EF92FF920F937B
S1131C301F93CFB6F894DD240E948004DC01CB010D
S1131C4066E470E00E94131D6BE0E62EF12CE80EB2
S1131C50F91EF092B502E092B4020E94000500273A
S1131C601127A80197010E94BD05CFBE1F910F91B6
S1131C70FF90EF90DF90CF9008951F93CF93DF9361
S1131C808FB7F894C82FDD271C2F809116019091EF
S1131C9017010897C9F489E00E94C00883E00E94F4
S1131CA0D009C09A81E090E09093170180931601C7
S1131CB08FB7F894992723E0209310018FBF82E017
S1131CC00E946101CFBF30C0C0988091B8028823C0
S1131CD011F085E001C084E00E94C00883FD09C0C2
S1131CE080E00E94C00883FF04C085E090E020E00B
S1131CF003C083E090E021E09093170180931601E4
S1131D00C09A1FBF222341F010922E0183E00E944B
S1131D10D0090E94130E08C00E94000520E431E09F
S1131D2040E050E00E94BD05DF91CF911F910895DE
S1131D30EF92FF920F931F93CF93DF938B018091C8
S1131D4090019091910186FF40C18F7B8F3309F000
S1131D508EC1C0912A01D0912B0158815093660104
S1131D6080916301909164018530910509F443C029
S1131D708630910509F48AC0029709F01FC185E0F5
S1131D8090E0909364018093630140914501852F15
S1131D9099270196242F3327281739074CF1B7992F
S1131DA006C00E9904C0451B415040934501409123
S1131DB066014A32E8F44423A1F0BE016F5F7F4F0D
S1131DC0483018F047E050E007C086E090E0909378
S1131DD0640180936301552780E090E00E94020231
S1131DE046C110927601C09A84E00E94D009E3C0F3
S1131DF00E94530A3CC186E090E090936401809372
S1131E00630180917A01882309F439C08091230207
S1131E108823A9F5898185FF32C08F814E812FB730
S1131E20F894332760918C0170918D012FBF99270D
S1131E30982F88275527842B952B8617970759F0B9
S1131E408F812E819927982F88273327822B932BD4
S1131E508F5F9F4FA1F489818770813081F4C09A8C
S1131E60C0988AE00E94C008C09AC0984091660158
S1131E7047502896BE018FE30E94DB08F8C04091CA
S1131E806601475055272896BE01A6CFC09A809177
S1131E906F01882339F484E00E94D00980916F0196
S1131EA0882311F0B7990AC00E9B08C0909188024C
S1131EB0992321F0809166018B3038F480912A01B6
S1131EC090912B010E9471043DC0913001F5E09185
S1131ED08D02FF27EE0FFF1FEE0FFF1FEC5CFD4F7F
S1131EE02081318142815381E0912A01F0912B01BB
S1131EF021ABBB27A52F942F832F80ABCA01AA2720
S1131F00BB2787A7252F33274427552726A780914A
S1131F108D029927019668E070E00E94271D809346
S1131F208D0280918802815080938802882351F029
S1131F3080912A0190912B010E94710410928D02CC
S1131F401092880280916601FE01E80FF11D8081E4
S1131F5087FF31C0012B79F169816770E0912A0113
S1131F60F0912B01623019F5A0917B01B0917C01B5
S1131F70109709F180911601909117010797D9F4F0
S1131F80ED019B8183819817B1F487B78F7E87BF5A
S1131F90908181E08CA7E90FF11D8291319688A789
S1131FA080818F7789A780E00E94FC0D04C0613096
S1131FB011F489E02AC00E941E0A59C010927601C9
S1131FC0C09A84E00E94D00952C08E3309F04FC0F9
S1131FD0C09A80911601909117010897C9F4C0988E
S1131FE089E00E94C008C09A83E00E94D00981E081
S1131FF090E090931701809316018FB7F894992776
S113200023E0209310018FBF82E00E9461012FC062
S11320108091B802882349F484E090E090931701FA
S1132020809316010E943D0E22C083E00E94D009D5
S113203083E090E090931701809316010E9480043E
S1132040DC01CB0166E371E00E94131D7BE0E72E07
S1132050F12CE80EF91EF0924001E0923F010E943B
S1132060000500271127A80197010E94BD05DF91F3
S1132070CF911F910F91FF90EF9008951F920F92AF
S11320800FB60F9211242F933F934F935F936F9347
S11320907F938F939F93AF93BF93EF93FF932FB14E
S11320A0E0911502F0911602309739F08091EA011F
S11320B09091EB01E80FF91F20838091EA01909140
S11320C0EB0101969093EB018093EA0180E00E947A
S11320D0090140912C0150912D018091EA019091C8
S11320E0EB018417950718F40E9494011CC06091B9
S11320F01502709116028091B1029091B202109271
S11321001602109215021092B2021092B1021092AD
S11321102D0110922C011092EB011092EA012FB1C3
S113212020E00E94980EFF91EF91BF91AF919F9193
S11321308F917F916F915F914F913F912F910F906C
S11321400FBE0F901F9018958F929F92AF92BF92DF
S1132150CF92DF92EF92FF920F931F93CF93DF936F
S1132160CDB7DEB7A8970FB6F894DEBF0FBECDBFCC
S1132170E82FFF27EB31F10508F067C6EA5BFF4F54
S1132180EE0FFF1F0590F491E02D099480919002C9
S1132190882309F45AC620E031E00FC60FB7F8943B
S11321A0112781E00E94190641E0E42EF12CF092FF
S11321B01701E09216011092180110924701109233
S11321C06B010FBF0FB7F89411270E946504F092BA
S11321D06401E09263011092760189B78F7B89BF15
S11321E080E488BF8AB780628ABF8AB78F7E8ABF3D
S11321F089B7806489BF0FBF8FB7F894082F112760
S11322008091110190911201049719F483E00E94C6
S1132210C0080FBF0FB7F8941127C09A80E00E943E
S1132220D0090FBF8FB7F894992722E020931F029B
S11322308FBF0E947903AB01BC01EE2408EC10E0CF
S113224020E030E081E00E945A0310927101109264
S1132250B302FBC58FB7F894992710921F0271C07F
S11322608FB7F8949927F09010018FBF63E081E055
S11322700E94F200882359F10FB7F89411271092A5
S113228017011092160187B78F7E87BF87B78F7D9E
S113229087BF83E00E94D009C09A0FBF0FB7F8949C
S11322A0112710926401109263010E946504C09A80
S11322B089B78F7B89BF0FBF109212011092110151
S11322C0DE98DD98DE9A81E00E94610107C08FB735
S11322D0F894992722E020931F028FBF0091970161
S11322E0109198010E9423028091AD029091AE0258
S11322F0892B09F0AAC58FEF809309014F2DB801EE
S1132300BAC38FB7F894282F3327122F8091B602BF
S1132310882309F581E08093B602809111019091A0
S11323201201049721F481E00E94590803C084E05B
S11323300E9461011FBF89C58FB7F8949927109235
S1132340B6028FBF82C58FB7F894282F33278091A8
S11323501301882311F02FBF78C52FBF80B39927AD
S113236036E0969587953A95E1F7182F117090917C
S11323708E0180918F018917D9F01917C9F484E06F
S113238090E090931201809311018FB7F8949927EC
S113239021E0209313018FBF60E070E08DE10E9483
S11323A0640A0E947207C09AC09880E00E9461018A
S11323B010938F0185E06DC08FB7F8949927109121
S11323C002018FBF123009F467C0133030F41123B7
S11323D059F0113009F039C548C0133009F476C0FA
S11323E0143009F032C5A2C0C0988FB7F894082FF2
S11323F0112780911101909112010297A1F583E0B8
S113240090E0909312018093110168E170E08DE1F6
S11324100E94640A81E080938E011092130180B3BC
S1132420992726E0969587952A95E1F78170907013
S113243080938F0185E00E94610181E00E94C008C1
S11324406FE772E08CE10E94640A0E94C50A0E9450
S11324508B0A66E57AE287E10E94640A6FEF70E80E
S113246085E10E94640A0FBFF0C4C09886E00E9410
S1132470C0080E94C50A0E948B0A0E947207C09A73
S1132480C09883E00E94C008C09A81E00E94D009ED
S113249084E00E946101D9C4C0988FB7F894082FD2
S11324A0112760E080E00E94F200882311F00FBF42
S11324B00AC00FBF83E50E94880180E00E94880162
S11324C080E00E948801C09A82E02DC08FB7F89402
S11324D09927209116018FBF243039F0283041F01C
S11324E0223001F50E94D60AB0C40E943D0EADC44C
S11324F0C09889E00E94C008C09A83E00E94D00975
S11325008FB7F894992721E030E030931701209396
S113251016018FBF8FB7F8949927109310018FBFBE
S113252082E0B7CF83E00E94D0098FC40E940D09D6
S11325308CC40FB7F894112740912C0150912D01B0
S113254060911502709116028091B1029091B202CD
S113255010921602109215021092B2021092B10259
S113256010922D0110922C011092EB011092EA01AD
S113257020E00E94980E77CF2FB7F89433278091EC
S113258070018093050182E0809315012FBF809133
S11325900501882309F059C4B89AC09886E079CF18
S11325A0A0912A01B0912B011C919D01210F311D95
S11325B0F9018081881F8827881FFD0183A7F901FD
S11325C080818F77FD0181A721503040F9018081FE
S11325D0FD0180A7A0912A01B0912B01FD01328158
S11325E08FB7F894992720916E018FBF222309F4A5
S11325F090C0832F99279695879596958795837094
S113260090708230910541F5878146812FB7F89407
S1132610332760918C0170918D012FBF9927982FDA
S113262088275527842B952B8617970719F481E063
S113263090E06CC0FD018781268140E050E099273D
S1132640982F88273327822B932B8F5F9F4F11F46A
S113265041E050E0CA015AC0039709F058C19E01F5
S11326602F5F3F4F44E252E088E0FA010190AF014E
S1132670F90101929F018150C1F79E012F5D3F4FE7
S1132680AE014F5F5F4F88E0FA010190AF01F9019D
S113269001929F018150C1F79E01275F3F4FAE0118
S11326A04F5D5F4F88E0FA010190AF01F90101929B
S11326B09F018150C1F79E012F5E3F4FAE01475FDE
S11326C05F4F88E0FA010190AF01F90101929F0187
S11326D08150C1F79E01275E3F4FAE014F5E5F4FB1
S11326E088E0FA010190AF01F90101929F01815044
S11326F0C1F748E050E0BE01675E7F4FCD0106960A
S11327000E94901D892B09F002C103C0882309F49B
S1132710FEC01D3008F4FBC0E0902A01F0902B01AC
S1132720F7012281822F992736E0969587953A956D
S1132730E1F7039719F468E070E002C062E070E02A
S1132740822F992796958795969587958370907093
S1132750039719F488E090E002C082E090E026E05C
S113276030E0E20EF31E40E050E020E030E0F701FC
S1132770E80FF91F8AEF9FEFE80EF91E05C081915B
S1132780480F511D2F5F3F4F26173707C4F3F7013A
S113279063818FEF8093AF028FB7F894782F20E096
S11327A030E0E3E3F1E0808191818417950731F40F
S11327B08281861709F48BC02093AF022F5F3F4FAD
S11327C033962430310579F77FBF9091AF023FB73C
S11327D0F8949F3F21F080911901891799F4209171
S11327E01901822F9927FC01EE0FFF1FE80FF91F33
S11327F0ED5CFE4F5183408362832F5F23702093EF
S113280019010CC0892F9927FC01EE0FFF1FE80F57
S1132810F91FED5CFE4F518340836283832F992718
S11328208FBF0FB7F8941127C7010E949400FC01D1
S113283090810FBFF70183A5882309F464C09F33F7
S113284009F061C0878146812FB7F89433276091DE
S11328500601709107012FBF9927982F88275527C4
S1132860842B952B8617970761F0878126819927FA
S1132870982F88273327822B932B8F5F9F4F09F044
S113288042C0F70183858A3809F03DC0D7011C9600
S113289080898F37F1F4848925899927982F88278F
S11328A03327822B932B2091000130910101821751
S11328B0930779F4978980919C01891B80939C01EB
S11328C0978980919402891B809394021CC07FBFD6
S11328D01AC0FD01858126819927982F88273327DF
S11328E0822B932B209100013091010182179307D1
S11328F051F083819927282F21502383882319F0AD
S1132900CD010E94180CF0922B01E0922A018FB79E
S1132910F8949927109276018FBF0E941E0A95C2DF
S113292080916901882361F5209130023091310250
S11329304091320250913302EFB7F894FF2760912F
S11329401A0270911B0280911C0290911D02E0906A
S11329504101F090420100914301109144016E0D38
S11329607F1D801F911FEFBF2093300230933102EF
S11329704093320250933302109269010E944B0437
S11329800E94790343C00E9479035B016C018FB7F5
S1132990F89499271092E9018FBF3FEFE32E3FEFA0
S11329A0F32E3FEF032F3FE7132F60E0E1EFF1E059
S11329B0808581FF1CC080819181A281B381A601A1
S11329C09501281B390B4A0B5B0BDA01C9012481E1
S11329D0358146815781281B390B4A0B5B0B2E1519
S11329E03F05400751071CF479018A0161E03996DB
S11329F032E0E531F307E1F6662309F426C21E143A
S1132A001F04100611062CF0C601B5010E94610CCA
S1132A101CC2E0923002F092310200933202109311
S1132A20330281E080936901A8019701C601B501D1
S1132A300E944B040AC29091820180910901981767
S1132A4009F403C2909309019923D1F400911A0166
S1132A5010911B0160919501C8010E941C0B482F25
S1132A605527442309F4F1C18FEF80930901609144
S1132A701A0170911B01F80183850E94ED0DE5C1D7
S1132A808FEF80930901E1C18FB7F89499272091C2
S1132A902C0220930C0123E020931D018FBF109181
S1132AA00C0180E00E94C702882309F4CEC1809102
S1132AB02101882309F0C9C182E080939401109216
S1132AC08C020E94DC0281E08093210110936A0150
S1132AD0BCC10E94A003B9C180912001813009F0DA
S1132AE0B4C11D98159880E1D4CC80E00E94ED0714
S1132AF01092200180911F01813011F40E94A003E3
S1132B008FB7F894992710921F0110921E0119CCC7
S1132B1010922101A0906701B0906801809081011A
S1132B2090906A018FB7F894C82E80911D0183306C
S1132B3009F041C080910C018915E9F58091F001FB
S1132B40882309F06DC163C1ED2DE695E695E69500
S1132B50FF274D2D5527E051FE4F9A012770307005
S1132B6081E090E002C0880F991F2A95E2F78095D2
S1132B7020812823208300931C0112C00F5F1F4F64
S1132B800130110511F400E010E0D02E802F0E94D6
S1132B90B4038823C9F60E151F0581F74FEF50E0E3
S1132BA040932C028FEF80930C0181E080931D01F0
S1132BB08DE00E946101CFBE992009F046C18820B2
S1132BC021F0DA982FEFA22EB22EE0917101EA30B3
S1132BD008F03BC1EF5FE0937101E150FF27EE0F76
S1132BE0FF1FEF55FE4FE3C08FB7F894992720914C
S1132BF0790120930D0123E0209323018FBF80915D
S1132C000D01882321F0813009F01FC10EC0159AEF
S1132C101D9A0E947903AB01BC0181E0E82E0AE011
S1132C2010E020E030E082E00DC0A09AA89A0E9453
S1132C307903AB01BC0101E0E02E0AE010E020E0E2
S1132C4030E083E00E945A0300C110929401FDC059
S1132C508FB7F89499272091650120930E0123E002
S1132C60209325018FBF00910E0181E00E94C702CD
S1132C70882309F4EAC080912901882309F0E5C07A
S1132C8082E08093940111E010938C020E94DC0294
S1132C90109329010093B902D8C00E949F02D5C0A5
S1132CA080912801813009F0D0C0A898A09887E1CC
S1132CB0F0CB81E00E94ED0710922801809127015A
S1132CC0813011F40E949F028FB7F89499271092D3
S1132CD027011092260135CB10922901A0908E0273
S1132CE0B0908F02809073019090B9028FB7F894DE
S1132CF0C82E80912501833009F041C080910E01D6
S1132D008915E9F580916D01882309F098C08EC07A
S1132D10ED2DE695E695E695FF274D2D5527E359CC
S1132D20FE4F9A012770307081E090E002C0880F56
S1132D30991F2A95E2F78095208128232083009308
S1132D40240112C00F5F1F4F0130110511F400E080
S1132D5010E0D02E802F0E94B3028823C9F60E15EE
S1132D601F0581F74FEF50E0409365018FEF80938B
S1132D700E0181E08093250184E10E946101CFBEB0
S1132D80992009F062C0882021F0DA981FEFA12E63
S1132D90B12EE091B302EA3008F057C0EF5FE09340
S1132DA0B302E150FF27EE0FFF1FE756FD4FA1824C
S1132DB08B2D9927808349C0330F90919002832FE4
S1132DC0892399F0E22FFF27EE0FFF1FE451FE4FF6
S1132DD011821082832F809598239093900222234E
S1132DE021F4DA98330F21E0E8CF2F5F283020F365
S1132DF02CC080910F01E82FFF27EE0FFF1FE45135
S1132E00FE4F6081718141E00E94B00D1EC081E0DF
S1132E1080930C0110921D0180931E018FE0C9CE96
S1132E2080911C01E82EFF248701A8CE81E08093C5
S1132E300E01109225018093260186E19ECF809198
S1132E402401E82EFF2487017DCFA8960FB6F894BD
S1132E50DEBF0FBECDBFDF91CF911F910F91FF90C9
S1132E60EF90DF90CF90BF90AF909F908F90089598
S1132E70809189028F3FB1F0282F3327F901E85B55
S1132E80FE4F8081809389028F3F11F48093B702B3
S1132E908FEF80832F3F31F0822F0E94A41081E0B6
S1132EA090E0089580E090E0089578941F920F9246
S1132EB00FB60F9211242F923F924F925F926F920E
S1132EC07F928F929F92AF92BF92CF92DF92EF92B6
S1132ED0FF920F931F932F933F934F935F936F939F
S1132EE07F938F939F93AF93BF93CF93DF93EF938E
S1132EF0FF93C6B5D7B58FB7F894282E0E94000566
S1132F009B012C1B3D0B442755272B013C01421AE6
S1132F10530A640A750A809116019091170185304D
S1132F20910521F0069709F0E0C0BFC086E090E06B
S1132F30909317018093160131E0332E309274017F
S1132F401092180180E00E941906E0917B01F09133
S1132F507C0141AABB27A72D962D852D80ABC301EB
S1132F60AA27BB2787A7872D9927AA27BB2786A728
S1132F70E0917B01F0917C0185A5882309F484C04C
S1132F806081655077274F01860E971EF4012081DA
S1132F90E1808281A3809927AA27BB27BA2FA92F72
S1132FA0982F8827332744275527522F4427332720
S1132FB02227FF24002711278701FF24EE242E292E
S1132FC03F29402B512BBB24CC24DD242A293B2927
S1132FD04C295D29822B932BA42BB52B841995099D
S1132FE0A609B7098383292F3A2F4B2F552722830C
S1132FF09D014427552721838B2F9927AA27BB2777
S11330008083C09824E0A40180E090E00E94D80569
S1133010C09AF4012081E1808281A3809927AA27A4
S1133020BB27BA2FA92F982F882733274427552742
S1133030522F442733272227FF24002711278701F3
S1133040FF24EE242E293F29402B512BBB24CC24D2
S1133050DD242A293B294C295D29822B932BA42B7F
S1133060B52B840D951DA61DB71D8383292F3A2FDB
S11330704B2F552722839D014427552721838B2FCE
S11330809927AA27BB278083E0917B01F0917C01DB
S1133090818185FF02C03092470183E00E94D009FC
S11330A087B78F7E87BF84997AC01092740181E0BC
S11330B00E941906E0917B01F0917C01818185FFDA
S11330C00FC087E090E090931701809316010E944F
S11330D0000520E031E040E050E00E94BD0503C05F
S11330E080E00E94FC0D849B5AC0809118018823C3
S11330F091F580917401882371F511E010937401A6
S11331000E94190680B320918802283098F4E09137
S11331108D02E20FFF27E770F070EE0FFF1FEE0F36
S1133120FF1FEC5CFD4F40825182628273822F5FED
S11331302093880210931801D0939301C0939201B5
S113314084992DC0992754E0969587955A95E1F76F
S1133150182F117001C010E0809174018130F9F4CE
S1133160109274010E941906109218011123B9F4E7
S11331708091920190919301C81BD90B2A9778F4FE
S113318080918802882319F081508093880280916D
S11331907B0190917C01009711F00E9471042FBE75
S11331A0FF91EF91DF91CF91BF91AF919F918F915B
S11331B07F916F915F914F913F912F911F910F914B
S11331C0FF90EF90DF90CF90BF90AF909F908F9043
S11331D07F906F905F904F903F902F900F900FBE15
S11331E00F901F90189578941F920F920FB60F921C
S11331F011241F932F933F934F935F936F937F9368
S11332008F939F93AF93BF93EF93FF9387B78F7E73
S113321087BF78941FB7F8948091830190918401BB
S1133220A0918501B09186010097A105B10509F02F
S113323051C080911601909117018530910561F17B
S11332408630910530F48330910549F0049781F577
S11332501AC087309105F1F0089751F514C0869B88
S11332600FC084E090E090931701809316010E94B0
S1133270000527E030E040E050E00E94BD0518C0A2
S11332800E94130E15C00E94B108882389F40E947D
S11332903D0E0EC080E00AC089E00E94C00881E0B3
S11332A00E94190683E00E94D00987E00E94FC0D69
S11332B08091110190911201019771F482E090E0E4
S11332C09093120180931101DE98DE9A80E00E94AF
S11332D0590802C00E941D05812F99278FBFFF91B5
S11332E0EF91BF91AF919F918F917F916F915F917A
S11332F04F913F912F911F910F900FBE0F901F90F0
S113330018951F93CF93DF93CDB7DEB7E0970FB631
S1133310F894DEBF0FBECDBF1FB7F8944BE150E069
S11333206FEF70E088E491E00E949D1D8FEF809321
S113333089028093B70281E08EBD88E080BF83E07C
S113334083BF8CB59DB54AE72CB53DB52817390721
S113335008F44150442311F0C901F6CF92B782B763
S11333608917E9F32CB53DB592B782B78917E9F30C
S11333708CB59DB5821B930B409655E09695879529
S11333805A95E1F790938B0280938A0213BE83B718
S11333908EBD8EB580BF12BE1DBC1CBC8FEF86BF18
S11333A086B780937C0080B7992787709070892BAB
S11333B0D1F7D29AD19AD09ADA9AD99AD89A15BAD8
S11333C08FEF84BBD498DC9816B81DBC1CBC87B79F
S11333D0846087BF8EB5887F84608EBD0E94381755
S11333E08823E1F710926D01109246011092F001CA
S11333F08FEF80937201E3E3F1E08FEF9FEF91830E
S113340080831282339621E0EF33F207C1F70E94E2
S1133410800460932F028091000190910101019634
S1133420AA27BB2780937D0190937E01A0937F01FF
S1133430B093800180B7886080BF8BE083BF86EE45
S113344081BF87B7826087BF0E94C80384E592E08A
S113345090932B0180932A018E98B89A8C988FEFC1
S11334608093870110921E0210921F021092200274
S113347010922102B89AD69AD59A8FB7F8949927C0
S113348020910601309107018FBF30938D01209365
S11334908C010E942C0629A73AA74BA75CA76DA70D
S11334A07EA78FA798ABDE019196FE01B99688E0BE
S11334B001900D928150E1F7DE015196FE01B19623
S11334C088E001900D928150E1F7DE015996FE01EA
S11334D0719688E001900D928150E1F7A4E2B2E088
S11334E0FE01799688E001900D928150E1F7809178
S11334F00801992790937801809377018FE1809355
S113350019028AE180932D020E942C0629A73AA76A
S11335104BA75CA76DA77EA78FA798ABDE019196FA
S1133520FE01B99688E001900D928150E1F7DE0129
S11335301196FE01B19688E001900D928150E1F759
S1133540DE011996FE01319688E001900D928150BA
S1133550E1F7A4E2B2E0FE01399688E001900D9211
S11335608150E1F7A4E2B2E0FD0137969C9180819D
S11335708D939083319782E0E732F807B9F781E0C1
S113358080936E011092B00280937A01109223020C
S11335900E9438178823E1F7812F99278FBF7894E9
S11335A032E030939C01809100019091010180935D
S11335B09F01492F552740939E0121E020939D01AF
S11335C0309394028093970240939602309395022D
S11335D061E081E00E94D8008823E9F48FB7F89471
S11335E0282F33278091110190911201892B11F01A
S11335F02FBF1FC081E090E09093120180931101CE
S11336002FBFDD9A0E94000524E130E040E050E045
S11336100E94BD050EC062E081E00E94F200882392
S113362009F072C061E081E00E94F200882309F48D
S11336306BC08FB7F894482F55274BC087B799278D
S113364083709070892B19F4E5E0F0E013C080B723
S1133650992787709070892BD1F781B792B7891B0E
S11336608C3030F082B7853F18F4E3E0F0E002C01C
S1133670E2E0F0E087B7887BC1F480917D008B7F26
S1133680A1F46E9912C08AB190919A00892B887125
S113369061F48091740082FD08C0379B03C081E00F
S11336A090E005C085E090E002C080E090E025B79E
S11336B08E1708F4E82FFF27EE53FF4FE491237E83
S11336C02062E22BE5BF78948895F89485B78F7DC6
S11336D085BF809189028F3F09F4B0CF282F33270B
S11336E0F901E85BFE4F8081809389028F3F11F4DA
S11336F08093B7028FEF80832F3F09F49FCF4FBF92
S1133700822F0E94A41095CFDA9893CFACE2B0E058
S1133710ECE8FBE10C94591D222E332E442E552E39
S1133720662E772E882E992EFE013196A8E01192EE
S1133730AA95E9F729823A824B825C826D827E8265
S11337408F829886FE013996B8E01192BA95E9F70E
S1133750A986BA86CB86DC86ED86FE860F87188B13
S113376089819A81AB81BC8189A79AA7ABA7BCA7A1
S11337707C018D018FEF9FEFA0E0B0E0E822F922F9
S11337800A231B2389A59AA5ABA5BCA51D01442426
S1133790552489859A85AB85BC858DA39EA3AFA34B
S11337A0B8A75C016D018FEF9FEFA0E0B0E0A82205
S11337B0B922CA22DB228DA19EA1AFA1B8A53D01E9
S11337C088249924C801B701A60195010E943A1DD5
S11337D069A37AA38BA39CA3C801B701A401930195
S11337E00E943A1D7B018C01C201B101A601950121
S11337F00E943A1D5B016C01C201B101A401930155
S11338000E943A1D3B014C01EA0CFB1C0C1D1D1DC2
S113381089A19AA1ABA1BCA19D01442755272E0DD6
S11338203F1D401F511F2A153B054C055D0540F403
S113383080E090E0A1E0B0E0680E791E8A1E9B1E35
S1133840CA01AA27BB27860D971DA81DB91D8D8FF8
S11338509E8FAF8FB8A3A9013327222789A19AA1EC
S1133860ABA1BCA1A070B070280F391F4A1F5B1F09
S1133870298F3A8F4B8F5C8FA98CBA8CCB8CDC8CC4
S1133880ED8CFE8C0F8D18A1FE01719698E01192BB
S11338909A95E9F7ED8AFE8A0F8B188F2D813E8168
S11338A04F8158856DA17EA18FA198A50E943A1DD4
S11338B03B014C012D853E854F85588969A57AA524
S11338C08BA59CA50E943A1D2D893E894F89588D50
S11338D0260F371F481F591F260D371D481D591D18
S11338E02D8B3E8B4F8B588F6D887E888F88988C5C
S11338F02A2D3B2D4C2D5D2D662D772D882D992D50
S1133900E2E1AC960C94751DA0E1B0E0EAE8FCE1BC
S11339100C94591D222E332E442E552E662E772EAE
S1133920882E992E002309F466C088E0FE013196A2
S113393011928A95E9F729833A834B835C836D83DB
S11339407E838F829887E0E2E01B1E16CCF52D81E2
S11339503E814F815885602F772767FD7095DA0186
S1133960C901062E04C0B695A795979587950A9424
S1133970D2F78D879E87AF87B88B04C0220F331F81
S1133980441F551FEA95D2F789819A81AB81BC8186
S113399004C0B695A795979587956A95D2F7282B75
S11339A0392B4A2B5B2B29873A874B875C872984E1
S11339B03A844B845C846D847E848F8498881BC095
S11339C01D861E861F86188A2E2F332727FD3095C5
S11339D0309521953F4F8D819E81AF81B88504C07C
S11339E0B695A795979587952A95D2F789879A874B
S11339F0AB87BC87DCCF222D332D442D552D662D6E
S1133A00772D882D992DE2E160960C94751D991BF4
S1133A1079E004C0991F961708F0961B881F7A95C1
S1133A20C9F780950895AA1BBB1B51E107C0AA1FC3
S1133A30BB1FA617B70710F0A61BB70B881F991F4B
S1133A405A95A9F780959095BC01CD01089597FBEF
S1133A50092E07260AD077FD04D0E5DF06D0002022
S1133A601AF4709561957F4F0895F6F790958195B6
S1133A709F4F0895629FD001739FF001829FE00DD4
S1133A80F11D649FE00DF11D929FF00D839FF00DD9
S1133A90749FF00D659FF00D9927729FB00DE11D85
S1133AA0F91F639FB00DE11DF91FBD01CF01112462
S1133AB008952F923F924F925F926F927F928F92CE
S1133AC09F92AF92BF92CF92DF92EF92FF920F93A9
S1133AD01F93CF93DF93CDB7DEB7CA1BDB0B0FB6B3
S1133AE0F894DEBF0FBECDBF09942A883988488870
S1133AF05F846E847D848C849B84AA84B984C88406
S1133B00DF80EE80FD800C811B81AA81B981CE0FFC
S1133B10D11D0FB6F894DEBF0FBECDBFED010895E1
S1133B20FB01DC0104C08D910190801921F4415006
S1133B305040C8F7881B990B0895DC0101C06D93B0
S10D3B4041505040E0F70895FFCF14
S1133B4A0100FFFFFFFF010022FFFFFF0102010145
S9030000FC
