S01800006275696C642F6D6963617A2F6D61696E2E73726563E5
S11300000C945E010C94CF060C94D9060C94E30670
S11300100C94ED060C94F7060C9401070C94C20C96
S11300200C940B070C947D010C947D010C94510FDE
S11300300C944F1D0C9499060C94AF060C940C0B65
S11300400C9488060C941A130C94D2080C947D0119
S11300500C944E090C947D010C947D010C947D014B
S11300600C94A4060C94A10A0C94800A0C948B0A98
S11300700C94960A0C94B40A0C94630A0C947D01B3
S11300800C94750A0C947D010C947D019F13421409
S1130090FA1448154E159F15BB15C115F915B4165C
S11300A0D716EB1659188C18D9180219E719FB1929
S11300B0FD19001A401A00002110422063308440C8
S11300C0A550C660E770088129914AA16BB18CC123
S11300D0ADD1CEE1EFF13112100273325222B5529A
S11300E09442F772D662399318837BB35AA3BDD373
S11300F09CC3FFF3DEE36224433420040114E6646A
S1130100C774A44485546AA54BB528850995EEE5C2
S1130110CFF5ACC58DD55336722611163006D77679
S1130120F6669556B4465BB77AA719973887DFF712
S1130130FEE79DD7BCC7C448E5588668A778400841
S1130140611802282338CCC9EDD98EE9AFF9488962
S113015069990AA92BB9F55AD44AB77A966A711AD9
S1130160500A333A122AFDDBDCCBBFFB9EEB799BB2
S1130170588B3BBB1AABA66C877CE44CC55C222C29
S1130180033C600C411CAEED8FFDECCDCDDD2AAD02
S11301900BBD688D499D977EB66ED55EF44E133EB9
S11301A0322E511E700E9FFFBEEFDDDFFCCF1BBF52
S11301B03AAF599F788F8891A981CAB1EBA10CD12C
S11301C02DC14EF16FE18010A100C230E320045034
S11301D0254046706760B9839893FBA3DAB33DC3A7
S11301E01CD37FE35EF3B1029012F322D232354284
S11301F0145277625672EAB5CBA5A89589856EF537
S11302004FE52CD50DC5E234C324A01481046674D3
S1130210476424540544DBA7FAB79987B8975FE786
S11302207EF71DC73CD7D326F2369106B016576623
S11302307676154634564CD96DC90EF92FE9C8990E
S1130240E9898AB9ABA94458654806782768C01873
S1130250E1088238A3287DCB5CDB3FEB1EFBF98BE6
S1130260D89BBBAB9ABB754A545A376A167AF10AC3
S1130270D01AB32A923A2EFD0FED6CDD4DCDAABDF6
S11302808BADE89DC98D267C076C645C454CA23C13
S1130290832CE01CC10C1FEF3EFF5DCF7CDF9BAFC6
S11302A0BABFD98FF89F176E367E554E745E932E63
S11302B0B23ED10EF01E00081C18141011241FBEEB
S11302C0CFEFD0E1DEBFCDBF11E0A0E0B1E0ECE3C1
S11302D0F0E400E00BBF02C007900D92A431B10717
S11302E0D9F717E0A4E1B1E001C01D92A13DB10727
S11302F0E1F70E94C51A0C941D200C9400008FB7DE
S1130300F894992708958FBF08958FB7F894992783
S11303102BB331E023272BBB8FBF0895282F9FB722
S1130320F894E82FFF27EC5AFE4F80818F3F81F429
S1130330E091CA07E21771F40BC02093B80704C018
S1130340FF27EC5AFE4F20832093CA0720E007C002
S113035025E005C08091B8078F3F91F7EECF892F34
S113036099278FBF822F9927089580915B028A3045
S113037021F480918D01843021F081E0809320016B
S1130380089581E10E948E011092200108952FB7F3
S1130390F89433278CB95E9A2FBF0895FC01611538
S11303A0710519F481E090E008958091AE01909177
S11303B0AF01892B19F085E090E0089570935D07F3
S11303C060935C07F093AF01E093AE0110928F014C
S11303D010928E0181E0809390015E9A569A8081FA
S11303E021E030E030938F0120938E010E94C701F9
S11303F080E090E008958FB7F89499272091310117
S11304002E7F209331012EE720936C018FBF61E092
S113041070E08CE691E00E94CE01992708951F9325
S11304201FB7F8948091C607882341F48FE00E9497
S11304308E01882319F481E08093C607812F9927C0
S11304408FBF1F910895FC0182819927582F44275B
S113045081819927482B592BCA01892F9927869581
S11304608695837090708230910559F083309105A0
S113047059F0892B19F420E030E008C02CE93FEF53
S113048005C022E030E002C028E030E0CA0184E088
S1130490989F812D992711248230910559F083303A
S11304A0910559F0892B19F480E090E008C08CE99B
S11304B09FEF05C082E090E002C088E090E0280F42
S11304C0391F2A5F3F4FCF01820F931F0895282FB2
S11304D09FB7F894662349F0E82FFF27EC59FD4FA6
S11304E08081882311F021E006C0E22FFF27EC5918
S11304F0FD4F608320E0892F99278FBF822F992792
S11305000895E82F8FB7F894282F332790E0FF271A
S1130510EC59FD4F8081861709F491E02FBF892F94
S113052099270895882311F06E9A08956E98089576
S1130530882311F06F9A08956F98089580E00E94BF
S11305409202BA9ABB98B99AB89A6C9A80E00E94BF
S113055098026B986A9881E00E949202709A8DB119
S11305608C7F8DB908950F931F93CF93DF93182F2A
S11305708FB7F894C82FDD270C2F61E080E00E942C
S11305806702882321F0CFBF85E090E024C08091EA
S113059005018823A1F480911901823081F409C0F6
S11305A082E080931901109205010E949E02B89A7C
S11305B0C0981093020180E00FBF99270CC080916E
S11305C01901882369F38FB7F8949927109264026C
S11305D08FBF81E0F1CFDF91CF911F910F910895EB
S11305E01F93182F81E00E9492021FB9779BFECFC0
S11305F08FB199271F9108958F929F92AF92BF92C6
S1130600CF92DF92EF92FF920F931F93CF93DF93DA
S11306108FB7F8949927C090C207D090C3078090F1
S1130620580290905902C091DD01D091DE012091D1
S1130630350130913601EAE0AE2EB12CAC0EBD1E70
S11306402A153B0508F459018FBF7401EC0EFD1EF9
S113065086010C0F1D1F14C0C114D10419F0F80138
S1130660808101C080E00E94F0028114910411F0A5
S1130670F701808321960894E11CF11C0F5F1F4F42
S1130680C5010197C817D90738F381E00E94980281
S11306909FB7F894C114D10431F0CC0EDD1EF601DD
S11306A080818FB901C01FB8D093DE01C093DD01F2
S11306B0892F99278FBF80E090E0DF91CF911F9120
S11306C00F91FF90EF90DF90CF90BF90AF909F90ED
S11306D08F9008952FB7F8943327509336014093A1
S11306E035019093C3078093C207709359026093B6
S11306F058021092DE011092DD012FBF452B29F024
S11307008FB10E94FC029927089589E00E948E010E
S113071080E090E008958FB7F894992710926602CC
S11307208FBF08957FB7F89462B720913801309154
S1130730390140913A0150913B0106B601FE0FC0C8
S113074081B792B7280F311D411D511D2F5F3F4FB7
S11307504F4F5F4F290F311D411D511D04C0260FFE
S1130760311D411D511D872F99278FBFCA01B90122
S11307700895EF92FF920F931F93E091EF01E1FF31
S11307802BC02091E7013091E8014091E90150919B
S1130790EA01E090EB01F090EC010091ED01109181
S11307A0EE01621B730B840B950B6E157F0580079E
S11307B0910790F0E0FF04C0ED7FE093EF010CC0DF
S11307C02E0D3F1D401F511F2093E7013093E80178
S11307D04093E9015093EA018DE00E948E011F913C
S11307E00F91FF90EF900895DF92EF92FF920F9395
S11307F01F938FB7F894282F3327D22E91B782B73F
S113080046B7981711F041FF02C02FBF6AC080910C
S1130810D4018823E1F10E949203E0906002F090F9
S11308206102009162021091630220914D013091A6
S11308304E0140914F01509150016E197F09800B78
S1130840910B621773078407950720F01092D40167
S113085071E01EC02E0D3F1D401F511F80913801B5
S113086090913901A0913A01B0913B01281B390BB9
S11308704A0B5B0B273E31054105510540F4822F9D
S1130880223010F070E005C070E082E002C070E039
S113089086EE682F615000B601FCFDCF82B7681761
S11308A009F46F5F209138013091390140913A0188
S11308B050913B01DA01C9010196A11DB11D860FBA
S11308C0911DA11DB11D82179307A407B50710F44C
S11308D0622F609561BFDFBE772319F08CE00E9420
S11308E08E011F910F91FF90EF90DF900895AFB7A5
S11308F0F894BB27E1E0E093D40160936002709325
S11309006102809362029093630220934D013093BD
S11309104E0140934F0150935001AFBF0E94F40326
S1130920089580E88093510110928C011092BC07C5
S11309301092B707109270010895CF93DF93FC01D2
S113094015A6DC019E96ED011B821A82198280E8AD
S113095086A7DF91CF9108952F923F924F925F9295
S11309606F927F928F929F92AF92BF92CF92DF92BB
S1130970EF92FF920F931F93CF93DF93CDB7DEB720
S113098028970FB6F894DEBF0FBECDBF2090970115
S1130990309098014090990150909A0166247724F0
S11309A08824BEE4AB2EA3E8BA2ECC24DD24EE24A6
S11309B0FF2400E010E0222D332D442D552D662D0B
S11309C0772D882D90E00E94DD1D29833A834B8387
S11309D05C836D837E838F839887822E932EA42ECF
S11309E0B52E2401350100E20E94DB1EA22EB32E97
S11309F0C42ED52EC301B201969587957795679538
S1130A006A0D7B1D8C1D9D1D97FF05C09F776F5F31
S1130A107F4F8F4F9F4F60939701709398018093FE
S1130A20990190939A0128960FB6F894DEBF0FBEF1
S1130A30CDBFDF91CF911F910F91FF90EF90DF9089
S1130A40CF90BF90AF909F908F907F906F905F906A
S1130A504F903F902F9008958FB7F8946091DF01E5
S1130A607091E0012CB53DB506B602FE04C06F5F7F
S1130A707F4F2CB53DB599278FBF88279927CB0188
S1130A807727662744275527622B732B842B952BB6
S1130A900895EF92FF920F931F930E942C057B0100
S1130AA08C012091A6013091A7014091A801509199
S1130AB0A9018091A0019091A101A091A201B091FE
S1130AC0A301820F931FA41FB51FE216F3060407A8
S1130AD0150730F082179307A407B50758F005C02F
S1130AE082179307A407B507E0F5E816F9060A0785
S1130AF01B07B8F59C01AD012E193F09400B510BA2
S1130B00213060E8360760E0460760E0560768F188
S1130B1080E090E8A0E0B0E0E80EF91E0A1F1B1F79
S1130B20E092A601F092A7010093A8011093A901F5
S1130B3080E090E8AFEFBFEFE80EF91E0A1F1B1F1D
S1130B4020503048404050402093A0013093A101F0
S1130B504093A2015093A30120E030E840E050E02C
S1130B6014C020E030E040E050E08093A601909370
S1130B70A701A093A801B093A9011092A00110921B
S1130B80A1011092A2011092A301A901B7012CB5F1
S1130B903DB5C9018E199F0903968417950720F066
S1130BA0B9016D5F7F4F02C0640F751F6115710538
S1130BB011F461E070E0615070407BBD6ABD80E17A
S1130BC086BF87B7806187BF1F910F91FF90EF9019
S1130BD008950F931F930FB7F89411276093A601FC
S1130BE07093A7018093A8019093A9012093A00179
S1130BF03093A1014093A2015093A3010E9449059F
S1130C000FBF1F910F910895CF92DF92EF92FF9241
S1130C100F931F93CF93DF938C01F62E6A01E22E7C
S1130C208FB7F894C82FDD2760E080E00E9481022E
S1130C30882321F0CFBF80E090E01EC0CFBF0F0D0E
S1130C40111D802F80680E94F002F82E16950795DA
S1130C50802F807C0E94F0020E2D0AC0EE2DFF270B
S1130C60E01BF109EC0DFD1D80810E94F002015092
S1130C700023A1F78F2D9927DF91CF911F910F9119
S1130C80FF90EF90DF90CF90089597B79F7D97BF27
S1130C9090E296BF882319F08EB5806402C08EB5A9
S1130CA08F7B8EBD87B7806287BF80E090E0089518
S1130CB0AF92BF92CF92DF92EF92FF920F931F9366
S1130CC0CF93DF93CDB7DEB728970FB6F894DEBF86
S1130CD00FBECDBF20E070E0E0910001F091010172
S1130CE032E14DE65CE46FE4809101019E2F289689
S1130CF00FB6F894DEBF0FBECDBFDF91CF911F9129
S1130D000F91FF90EF90DF90CF90BF90AF90089538
S1130D101F920F920FB60F9211248F9383B783BF44
S1130D2000B600FCFDCF8F910F900FBE0F901F9067
S1130D30189578941F920F920FB60F9211240F906A
S1130D400FBE0F901F90189578941F920F920FB6B4
S1130D500F9211240F900FBE0F901F901895789446
S1130D601F920F920FB60F9211242F933F938F93DC
S1130D709F932FB7F89433278091DF019091E0017E
S1130D8001969093E0018093DF012FBF9F918F9193
S1130D903F912F910F900FBE0F901F9018951F92A7
S1130DA00F920FB60F9211240F900FBE0F901F9049
S1130DB018951F920F920FB60F9211240F900FBE29
S1130DC00F901F9018951F920F920FB60F92112437
S1130DD00F900FBE0F901F9018951F920F920FB691
S1130DE00F9211240F900FBE0F901F9018951F9211
S1130DF00F920FB60F9211240F900FBE0F901F90F9
S1130E0018951F920F920FB60F9211240F900FBED8
S1130E100F901F9018951F920F920FB60F921124E6
S1130E200F900FBE0F901F901895E6EBF0E0692726
S1130E30660FF11DE60FF11DC895982F802D319690
S1130E40C89590250895982F80912C01882389F5C1
S1130E50992379F531E030932C0180910C01809332
S1130E602D0120912101822F817080935201809164
S1130E7011019091120190932F0180932E01809182
S1130E8022018093300132273170267EE32FFF2721
S1130E90EE0FFF1FE35FFE4F80819181909312015B
S1130EA080931101232B2093210184E10E948E0160
S1130EB008958091210180FF02C08B7F01C08D7F46
S1130EC08093210108950F931F93082F162F80916B
S1130ED08D018130D9F0813038F0823009F44AC074
S1130EE0833009F028C159C0002309F458C1109275
S1130EF056071092550710925E0210925E071092E8
S1130F0091011092E2011092E10139C1002309F02C
S1130F1046C18091E1019091E2010E9415079093EE
S1130F20E2018093E10182E080938D0110935E07DA
S1130F30143409F000C125C18695869503C08091BB
S1130F4021018695817009F0F6C0809121019923D1
S1130F5011F0846001C0826080932101809121019D
S1130F60877E886080932101109222018FEF809305
S1130F700C0115C1002309F0DEC06093910180913A
S1130F80E1019091E2010E9415079093E2018093A0
S1130F90E10183E080938D0102C180915E028F3F65
S1130FA009F4C9C0002309F461C0823008F4C3C045
S1130FB0E0915507EE2309F4EBC04E2F4150E42F86
S1130FC0FF27EB5AF84F82819927382F2227442391
S1130FD011F4E2E002C0E42FE150FF27EB5AF84F8E
S1130FE082819927282B392B8091E1019091E2018C
S1130FF02817390709F09FC080E00E942307309129
S113100091018091D5012091D601982F9F5F963050
S113101008F090E0921771F0E82FFF27EB52FE4F93
S113102032838F5F8093D501863010F01092D50102
S11310300E940F02109256071092550794E0909365
S11310408D0110925E0210925E071092910110922F
S1131050E2011092E101809131018D7F8093310191
S113106080912001882309F49AC084C0823008F456
S11310704EC0E0915607FF27EB5AF84F8281482F64
S11310805527342F20912101822F869586958695A8
S1131090837099278130910519F00297F9F40EC0F5
S11310A0277E206120932101442311F485E001C0AF
S11310B080E08093220130930C0110C080912201C2
S11310C0843360F4E0911101F0911201E80FF11DF5
S11310D04083809122018F5F809322018091560783
S11310E0E82FFF27EB5AF84F62818F5F80935607F2
S11310F0833010F01092560777278091E101909188
S1131100E2010E9415079093E2018093E10180912E
S11311105507E82FFF27EB5AF84F12838F5F809310
S11311205507833010F01092550780915E028F5F4F
S113113080935E0234C0109256071092550714E053
S113114010938D0110925E0210925E07109291012D
S11311501092E2011092E101809131018D7F809320
S1131160310181E00E94230780912001882329F026
S113117010938D010E94B50112C0002381F081E01B
S113118009CF80912101982F917080FDD5CED7CEC3
S1131190809159079927382F222742E01CCF1F91AD
S11311A00F9108951F920F920FB60F9211242F934F
S11311B03F934F935F936F937F938F939F93AF93DB
S11311C0BF93EF93FF935F9B3DC06CB1E091E3014C
S11311D0F091E4013097F9F08091C4079091C5072C
S11311E0E80FF91F608301969093C5078093C407A5
S11311F02091CE073091CF078217930718F11092F0
S1131200E4011092E30180915A028330D9F0579897
S113121010925A0217C06E3719F460E081E010C0D2
S1131220809131016D3721F48260809331010AC0CD
S113123081FF05C08D7F8093310180E2682780E0C3
S11312400E946307FF91EF91BF91AF919F918F919E
S11312507F916F915F914F913F912F910F900FBEAE
S11312600F901F901895982F8D57823068F48091B5
S1131270310181608093310180E2892780935D028E
S11312808DE780936C0102C090936C0161E070E083
S11312908CE691E00E94CE019927089578941F92DC
S11312A00F920FB60F921124FF920F931F932F9357
S11312B03F934F935F936F937F938F939F93AF93DA
S11312C0BF93CF93DF93EF93FF9320918E013091DF
S11312D08F0180915C0790915D072817390780F48E
S11312E0E091AE01F091AF01E20FF31F80812F5F17
S11312F03F4F30938F0120938E010E94C701CDC0D0
S11313001092AF011092AE01109290015698FFB660
S1131310F8948091310180FF0EC08E7F809331015B
S113132080915D0280936C0161E070E08CE691E055
S11313300E94CE01AFC080915B02843009F48CC05E
S1131340853040F4823021F18330B8F5813009F0E2
S11313509CC00DC0863009F48DC0863008F483C06B
S1131360873009F48EC0883009F08FC091C0809115
S1131370A5010E943309082F83E080935B026091EA
S1131380A5018091CC079091CD070E94150710C04C
S11313908091BB070E943309082F83E080935B028E
S11313A06091BB078091CC079091CD070E941507EF
S11313B09093CD078093CC0766C0E091E601FF27A8
S11313C0EE0FFF1FEB54FE4F80810E943309082F5C
S11313D01091E601C12FDD27FE01EE0FFF1FEB5434
S11313E0FE4F60818091CC079091CD070E94150734
S11313F09093CD078093CC0720919F012F5F20937A
S11314009F01113039F580912801E0912301F09179
S11314102401E80FF11DE0818F5F809328019091F2
S11314202701981730F482E08093B60140E050E041
S113143002C04E2F5527DE01AA0FBB1FFD01EC543D
S1131440FE4F8081823031F02F3F21F0AB54BE4FEC
S11314504C9319C084E012C08091CC070E943309D8
S1131460082F85E00BC08091CD070E943309082F17
S113147086E004C00E94FB01082F87E080935B0292
S113148002C088E003C0002329F089E080935B0256
S11314900E940F028F2D99278FBFFF91EF91DF914B
S11314A0CF91BF91AF919F918F917F916F915F91F8
S11314B04F913F912F911F910F91FF900F900FBE6D
S11314C00F901F9018951F920F920FB60F92112430
S11314D08F9380919B0087FF02C080919C008F9125
S11314E00F900FBE0F901F90189578941F920F9233
S11314F00FB60F9211240F900FBE0F901F901895E6
S113150078941F920F920FB60F9211240F900FBE72
S11315100F901F90189578941F920F920FB60F9208
S113152011240F900FBE0F901F90189578941F925E
S11315300F920FB60F9211240F900FBE0F901F90B1
S1131540189578941F920F920FB60F9211248F93CF
S11315509F9380918000909181009F918F910F9033
S11315600FBE0F901F90189578941F920F920FB68C
S11315700F9211242F933F938F939F932FB7F89437
S1131580332780919D0190919E01019690939E0135
S113159080939D012FBF9F918F913F912F910F9029
S11315A00FBE0F901F901895CF93DF93CDB7DEB782
S11315B02C970FB6F894DEBF0FBECDBF8FB7F8944B
S11315C0282FAE014F5F5F4FDA01EAE6F2E088E0D0
S11315D001900D928150E1F78091920190919301D5
S11315E08987892F99278A878091AA019091AB01D5
S11315F08B87892F99278C872FBF2CE060E080E6AA
S113160091E00E9404062C960FB6F894DEBF0FBE3C
S1131610CDBFDF91CF9108951F920F920FB60F9215
S113162011242F933F934F935F936F937F938F93E3
S11316309F93AF93BF93EF93FF9383B783BF00B69A
S113164000FCFDCF81B799270196AA27BB272091DB
S113165038013091390140913A0150913B01280FF2
S1131660391F4A1F5B1F209338013093390140937F
S11316703A0150933B0178940E94F403FF91EF9157
S1131680BF91AF919F918F917F916F915F914F9196
S11316903F912F910F900FBE0F901F9018950F93AD
S11316A01F93182F0FB7F89461E080E00E9467023F
S11316B0882371F510930201809105018823A9F50F
S11316C080911901823089F588E00CC00E949E0245
S11316D080911901882349F481E0809319011092C3
S11316E071018AE00E948E012AC08091A4018F3F7B
S11316F031F5E0910401EE2311F11CC010920301B5
S113170004C0FF27EC55FE4F10821092040117C04D
S113171081E090E002C0880F991F1A95E2F72091AA
S11317201801282B209318010AC0809119018823DD
S1131730E1F6CCCF809103018F3F19F7DFCF802FE3
S113174099278FBF80E090E01F910F9108951F9318
S113175083E00E94B3029927182F882319F083E0AD
S11317600E944F0B812F99271F910895442319F04C
S11317700E94850120C03FB7F8942091D007E22F42
S1131780FF27EE0FFF1FE454FE4F808191816817FD
S1131790790771F4822F8F5F8093D0078C3010F01B
S11317A01092D00780914B01882311F010924B01C5
S11317B0832F99278FBF81E00E948E010895FF92A5
S11317C00F931F93CF93DF938C01DB016BE0ED014B
S11317D08D812E819927582F44273327422B532B51
S11317E0E62FFF27EE0FFF1FEE58FE4F0190F0810A
S11317F0E02D818922899927982F88273327822BE6
S1131800932B8417950769F49389ED018F819817B9
S113181041F497858B81981720F090898C819817D3
S113182061F16150E8F6FFB6F89480919C01882339
S113183031F580914C019927FC01EE0FFF1FEE5802
S1131840FE4FC081D1811183008301966CE070E06A
S11318500E947E1F80934C0120915C02281719F48A
S113186081E080939C018091BD07882359F40E94F4
S11318708E0181E08093BD0705C0E80106C00E9487
S11318808501E8018F2D99278FBFCE01DF91CF917C
S11318901F910F91FF9008951F93CF93DF93182FFB
S11318A08FB7F894C82FDD2760E080E00E948102A2
S11318B0882321F0CFBF80E090E005C0CFBF812F07
S11318C00E94F0029927DF91CF911F910895EF9222
S11318D0FF920F931F93CF93DF93182F7B01042F55
S11318E08FB7F894C82FDD2760E080E00E94810262
S11318F0882321F0CFBF80E090E014C0CFBF1064F4
S1131900812F99279093B1018093B0010E94F00236
S1131910182F402F5527B70180E090E00E946A03FA
S1131920812F9927DF91CF911F910F91FF90EF9015
S11319300895C098609132017091330141E08FE3C2
S11319400E94670C089582E090E090936A0180936E
S1131950690181E080938C0120E030E080910201F4
S1131960843011F421E030E0232B29F484E00E9438
S1131970B302882319F40E94990C089584E00E940C
S11319804F0B08951F920F920FB60F9211242F93AD
S11319903F934F935F936F937F938F939F93AF93F3
S11319A0BF93EF93FF938091690190916A0101972E
S11319B049F482E090E090936A01809369010E9467
S11319C0A30C05C0809170018F5F80937001FF911B
S11319D0EF91BF91AF919F918F917F916F915F91A3
S11319E04F913F912F910F900FBE0F901F9018951C
S11319F01F9380911801882309F04BC010910201B4
S1131A001F3F09F046C060E00E948102882309F468
S1131A1040C081E08093E304809153018823E1F185
S1131A201092E30485E090E045C0923069F5C09AD5
S1131A308091030120E030E08F3F11F421E030E099
S1131A40232BE9F4109305018F3F19F42FEF30E0B5
S1131A500DC0282F3327F901EC55FE4F8081809368
S1131A6003018F3F11F4109304011083209371013B
S1131A7081E0809319018AE00E948E0105C01093D1
S1131A8005011092190111C080911901882369F090
S1131A900FC081E090E00EC0809105019091190182
S1131AA0882319F2923021F0EFCF80E00E94920255
S1131AB080E090E01F9108951F93182F81E090E03B
S1131AC090931B0180931A01109253010E94F80C09
S1131AD08FB7F8949927109314018FBF84E00E9464
S1131AE08E011F9108951F93CF93DF939FB7F894AE
S1131AF0C92FDD271C2F90910201981721F0CFBF29
S1131B0081E090E03AC08FEF809302013091180198
S1131B103323F1F48FB7F8949927109264028FBF9E
S1131B200E94F80CCFBF11C02093020181E090E025
S1131B3002C0880F991F4A95E2F7809538233093A5
S1131B40180188E00E948E011FBF80E090E015C05C
S1131B5080E065E0E32FFF270E945E1F292F492FB5
S1131B605527CF01042E02C0959587950A94E2F774
S1131B7080FDDACF822F8F5FEFCFDF91CF911F915E
S1131B8008951F93CF93DF938FB7F894C82FDD2761
S1131B901C2F8091690190916A01892B29F484E0BA
S1131BA00E94730DCFBF1EC010928C0180917001F2
S1131BB0882311F0B79904C00E9908C0882319F03E
S1131BC08150809370010E94A30C0BC081E090E0CF
S1131BD090936A01809369011092700184E00E94DD
S1131BE0730D1FBFDF91CF911F9108950E9491043F
S1131BF0C09AC09888E00E944C0C88E00E944C0C6B
S1131C00C09A84E00E94730D0E94C10D0895FF9252
S1131C100F931F93CF93DF93F82E8B018FB7F89414
S1131C20C82FDD2760E080E00E948102882321F034
S1131C30CFBF80E090E00CC0CFBF8F2D0E94F00298
S1131C40812F99270E94F002802F0E94F002992789
S1131C50DF91CF911F910F91FF9008951F931FB7AC
S1131C60F89480916F01882319F460E070E009C052
S1131C7060E08091C107882309F461E081E068276E
S1131C80772780919401882319F480E090E00AC0BA
S1131C9090E080916902882309F491E081E098271B
S1131CA0892F9927762F6627770F770F770FA4E070
S1131CB0880F991FAA95E1F7826E9262682B792B9F
S1131CC081E10E94070E812F99278FBF1F910895EC
S1131CD08FB7F89499276091E2048FBF85E0689FDD
S1131CE0B0011124625D7E4F706488E10E94070E8A
S1131CF00895EF92FF921F93CF93DF93E0909501A5
S1131D00F0909601F70182A59927182F882309F4EA
S1131D101FE1C09880916E01811749F0612F7727E8
S1131D206F717070606E706885E10E94070E109389
S1131D306E01F70110818FB7F894C82FDD2760E09A
S1131D4080E00E948102882311F0CFBF12C0CFBF70
S1131D508EE390E09093B1018093B0018EE30E94F2
S1131D60F0021150412F552760E070E0C7010E9436
S1131D706A03DF91CF911F91FF90EF9008950F9325
S1131D801F93CF93DF93EC010FB7F89411270E94B0
S1131D902302FC018FE380830FBF1092BF071092D0
S1131DA0BE0761E082E00E946702882319F085E0A3
S1131DB090E072C08091E4048F5F8093E4048150CA
S1131DC08B838FB7F894082F112762E081E00E947B
S1131DD08102882329F40FBF0E948B0381E05BC03A
S1131DE08FB7F894992724E0209365028FBFD0938E
S1131DF0BB01C093BA010FBFFE01319681812981D5
S1131E009927982F88273327822B932B80729C7CC9
S1131E108983892F992781832981982F88273327BC
S1131E202164822B932B8983892F992781831CA674
S1131E3018A619A619AA18AA1FA680E88EA761E0F9
S1131E40609368024091BA015091BB018FB7F89436
S1131E50282F332780911A0190911B018830910516
S1131E6011F0019711F02FBF15C082E090E090931C
S1131E701B0180931A016093CB0750939601409302
S1131E809501109237012FBF0E94A70B882311F4EC
S1131E900E94790E80E09927DF91CF911F910F91D5
S1131EA0089578941F920F920FB60F9211242F92D7
S1131EB03F924F925F926F927F928F929F92AF92D6
S1131EC0BF92CF92DF92EF92FF920F931F932F93C3
S1131ED03F934F935F936F937F938F939F93AF93AE
S1131EE0BF93CF93DF93EF93FF93C6B5D7B58FB767
S1131EF0F894282E0E942C059B012C1B3D0B442793
S1131F0055272B013C01421A530A640A750A809131
S1131F101A0190911B018530910521F0069709F073
S1131F20E0C0BFC086E090E090931B0180931A014B
S1131F3031E0332E30928B0110921C0180E00E941C
S1131F404506E0919501F091960141AABB27A72D82
S1131F50962D852D80ABC301AA27BB2787A7872D84
S1131F609927AA27BB2786A7E0919501F0919601AE
S1131F7085A5882309F484C06081655077274F01C3
S1131F80860E971EF4012081E1808281A380992727
S1131F90AA27BB27BA2FA92F982F8827332744278E
S1131FA05527522F442733272227FF2400271127A0
S1131FB08701FF24EE242E293F29402B512BBB24DB
S1131FC0CC24DD242A293B294C295D29822B932BFF
S1131FD0A42BB52B84199509A609B7098383292F46
S1131FE03A2F4B2F552722839D01442755272183C0
S1131FF08B2F9927AA27BB278083C09824E0A401AC
S113200080E090E00E940406C09AF4012081E180FF
S11320108281A3809927AA27BB27BA2FA92F982F9B
S11320208827332744275527522F4427332722272D
S1132030FF24002711278701FF24EE242E293F299E
S1132040402B512BBB24CC24DD242A293B294C29A9
S11320505D29822B932BA42BB52B840D951DA61DD6
S1132060B71D8383292F3A2F4B2F552722839D0198
S11320704427552721838B2F9927AA27BB278083A1
S1132080E0919501F0919601818185FF02C0309223
S1132090530183E00E94730D87B78F7E87BF8499B5
S11320A07AC010928B0181E00E944506E09195016F
S11320B0F0919601818185FF0FC087E090E09093B5
S11320C01B0180931A010E942C0520E031E040E0BE
S11320D050E00E94E90503C080E00E945C0D849BEF
S11320E05AC080911C01882391F580918B0188232B
S11320F071F511E010938B010E94450680B3209185
S1132100B707283098F4E091BC07E20FFF27E77087
S1132110F070EE0FFF1FEE0FFF1FED59F84F4082D6
S11321205182628273822F5F2093B70710931C0140
S1132130D093B301C093B20184992DC0992744E090
S1132140969587954A95E1F7182F117001C010E014
S113215080918B018130F9F410928B010E94450625
S113216010921C011123B9F48091B2019091B30132
S1132170C81BD90B2A9778F48091B707882319F0E4
S113218081508093B70780919501909196010097B3
S113219011F00E949D042FBEFF91EF91DF91CF912A
S11321A0BF91AF919F918F917F916F915F914F916B
S11321B03F912F911F910F91FF90EF90DF90CF905F
S11321C0BF90AF909F908F907F906F905F904F9053
S11321D03F902F900F900FBE0F901F901895CF92A5
S11321E0DF92EF92FF920F931F93CFB6F894DD2402
S11321F00E94AC04DC01CB0166E470E00E946A1F1B
S11322004BE0E42EF12CE80EF91EF092C807E092A0
S1132210C7070E942C0500271127A80197010E94D7
S1132220E905CFBE1F910F91FF90EF90DF90CF9003
S113223008951F93CF93DF938FB7F894C82FDD27AA
S11322401C2F80911A0190911B010897C9F489E011
S11322500E944C0C83E00E94730DC09A81E090E0D0
S113226090931B0180931A018FB7F894992723E068
S1132270209314018FBF84E00E948E01CFBF30C031
S1132280C0988091CB07882311F085E001C084E0D9
S11322900E944C0C83FD09C080E00E944C0C83FF1B
S11322A004C085E090E020E003C083E090E021E0FA
S11322B090931B0180931A01C09A1FBF222341F0FF
S11322C01092370183E00E94730D0E94EF1008C042
S11322D00E942C0520E431E040E050E00E94E90532
S11322E0DF91CF911F910895EF92FF920F931F9367
S11322F0CF93DF938B018091B0019091B10186FF60
S113230040C18F7B8F3309F08EC1C0913201D091CF
S11323103301588150936B018091690190916A0156
S11323208530910509F443C08630910509F48AC0CB
S1132330029709F01FC185E090E090936A018093B1
S1132340690140915101852F99270196242F332744
S1132350281739074CF1B79906C00E9904C0451BDC
S113236041504093510140916B014A32E8F44423B7
S1132370A1F0BE016F5F7F4F483018F047E050E096
S113238007C086E090E090936A0180936901552725
S113239080E090E00E946A0346C110928C01C09ACA
S11323A084E00E94730DE3C00E94F60D3CC186E0F8
S11323B090E090936A01809369018091940188234D
S11323C009F439C0809169028823A9F5898185FFC0
S11323D032C08F814E812FB7F89433276091AA01C0
S11323E07091AB012FBF9927982F88275527842BED
S11323F0952B8617970759F08F812E819927982F4F
S113240088273327822B932B8F5F9F4FA1F48981D9
S11324108770813081F4C09AC0988AE00E944C0C85
S1132420C09AC09840916B0147502896BE018FE333
S11324300E94670CF8C040916B01475055272896BD
S1132440BE01A6CFC09A80917001882339F484E03C
S11324500E94730D80917001882311F0B7990AC00E
S11324600E9B08C09091B707992321F080916B01CE
S11324708B3038F480913201909133010E949D0495
S11324803DC0913001F5E091BC07FF27EE0FFF1F1F
S1132490EE0FFF1FED59F84F2081318142815381A6
S11324A0E0913201F091330121ABBB27A52F942F8A
S11324B0832F80ABCA01AA27BB2787A7252F3327E1
S11324C04427552726A78091BC079927019668E0E1
S11324D070E00E947E1F8093BC078091B7078150F3
S11324E08093B707882351F0809132019091330192
S11324F00E949D041092BC071092B70780916B0153
S1132500FE01E80FF11D808187FF31C0012B79F1B5
S113251069816770E0913201F0913301623019F5FD
S1132520A0919501B0919601109709F180911A013B
S113253090911B010797D9F4ED019B818381981732
S1132540B1F487B78F7E87BF908181E08CA7E90FB4
S1132550F11D8291319688A780818F7789A780E0C9
S11325600E945C0D04C0613011F48BE02AC00E940B
S1132570C10D59C010928C01C09A84E00E94730D61
S113258052C08E3309F04FC0C09A80911A019091C5
S11325901B010897C9F4C09889E00E944C0CC09AAA
S11325A083E00E94730D81E090E090931B0180937F
S11325B01A018FB7F894992723E0209314018FBF51
S11325C084E00E948E012FC08091CB07882349F4B8
S11325D084E090E090931B0180931A010E941911EA
S11325E022C083E00E94730D83E090E090931B016E
S11325F080931A010E94AC04DC01CB0166E371E014
S11326000E946A1F5BE0E52EF12CE80EF91EF092A1
S11326104A01E09249010E942C0500271127A801D4
S113262097010E94E905DF91CF911F910F91FF90CF
S1132630EF9008951F920F920FB60F9211242F93CB
S11326403F934F935F936F937F938F939F93AF9336
S1132650BF93EF93FF932FB1E0915802F091590289
S1132660309739F08091DD019091DE01E80FF91F78
S113267020838091DD019091DE0101969093DE012B
S11326808093DD0180E00E949802409135015091D1
S113269036018091DD019091DE018417950718F4CD
S11326A00E94FC021CC060915802709159028091F2
S11326B0C2079091C30710925902109258021092C7
S11326C0C3071092C207109236011092350110927E
S11326D0DE011092DD012FB120E00E947411FF9100
S11326E0EF91BF91AF919F918F917F916F915F9186
S11326F04F913F912F910F900FBE0F901F901895FF
S1132700CF92DF92EF92FF920F931F93CF93DF93B9
S1132710CDB7DEB7A8970FB6F894DEBF0FBECDBF16
S1132720E82FFF27E531F10510F00C94991AEA5BC4
S1132730FF4FEE0FFF1F0590F491E02D09948FB722
S1132740F894282F3327422F90914C0180915C02FA
S1132750981739F480919C01882319F41092BD07CD
S1132760A2C04FBFE0915C02FF27EE0FFF1FEE589F
S1132770FE4F0190F081E02D80818D50482F552728
S1132780642F4093E5011385778106818185208537
S11327909927982F88273327822B932B34813596BA
S11327A027E0DF011D922A95E9F735978087892F65
S11327B0992787833287E0915C02FF27EE0FFF1F82
S11327C0EE58FE4F0190F081E02D6D3108F031C6D6
S11327D0872F9927982F8827202F3327822B932BF5
S11327E08683892F992785831387418780912501C3
S11327F090912601892B09F01CC62FB7F894332732
S113280085E08093280110922901F0932401E0933C
S1132810230182E090E09093260180932501109299
S11328202B0110922A01645F609327012FBF8FB799
S1132830F894282F332780915B028A3011F42FBF3C
S11328401CC02FBF9FB7F8948091B601882311F064
S113285020E006C081E08093B6011092B70121E028
S1132860892F99278FBF222341F00E940F028FB72F
S1132870F89499272BB332E0B6C010922601109237
S11328802501D7C58FB7F894282F3327422F90916D
S113289034018091D007981741F480914B0188232B
S11328A021F410923C012FBF44C64FBFE091D007E2
S11328B0FF27EE0FFF1FE454FE4FA081B181FD01FD
S11328C08185082F1127402F7581F6808781208507
S11328D09927982F88273327822B932B53852CE015
S11328E0322F11923A95E9F79896FD0111922A95A3
S11328F0E9F79897FD018087892F992781874D31C2
S113290008F074C0872F9927982F88272F2D3327F5
S1132910822B932B53878683892F992787832FB7FD
S1132920F894332780919201909193012FBF84836F
S1132930892F992785832FB7F8943327809106012F
S1132940909107012FBF8087892F992781877D0167
S11329500894E11CF11CF7018181FD012181992773
S1132960982F8827332720643868822B932B818300
S1132970892F9927F7018183435F4C934D508091B0
S11329800901882359F010920901602FCD010E949A
S1132990BF0E9927282F8823A9F417C0842F9927BD
S11329A09093B9018093B801B0931F01A0931E01C5
S11329B08EE00E948E0180910901882349F489E008
S11329C090E00AC08FEF80930901822F992704C0F9
S11329D010929B0180E090E0892B41F48FB7F8942A
S11329E099272BB334E023272BBBA2C50E94850172
S11329F081E043C50FB7F894112781E00E94450692
S1132A0041E0E42EF12CF0921B01E0921A011092A5
S1132A101C011092530110926E010FBF0FB7F8946E
S1132A2011270E949104F0926A01E09269011092C8
S1132A308C0189B78F7B89BF80E488BF8AB78062A5
S1132A408ABF8AB78F7E8ABF89B7806489BF0FBF68
S1132A508FB7F894082F11278091150190911601D2
S1132A60049719F483E00E944C0C0FBF0FB7F8943D
S1132A701127C09A80E00E94730D0FBF8FB7F8949E
S1132A80992722E0209365028FBF10924B0151C514
S1132A908FB7F894992710926502A7CF8FB7F8944F
S1132AA09927F09014018FBF63E081E00E948102B6
S1132AB0882359F10FB7F894112710921B01109233
S1132AC01A0187B78F7E87BF87B78F7D87BF83E063
S1132AD00E94730DC09A0FBF0FB7F894112710927C
S1132AE06A01109269010E949104C09A89B78F7B90
S1132AF089BF0FBF1092160110921501DE98DD9860
S1132B00DE9A83E00E948E0107C08FB7F89499275C
S1132B1022E0209365028FBF0091BA011091BB019E
S1132B200E948B038091BE079091BF07892B09F007
S1132B3000C58FEF809309014F2DB8015AC38FB799
S1132B40F894282F3327122F8091C907882309F07E
S1132B50AACE81E08093C907809115019091160156
S1132B60049721F481E00E944F0B03C086E00E9489
S1132B708E011FBFDEC48FB7F89499271092C9073E
S1132B8034CF8FB7F894282F3327809117018823E7
S1132B9009F089CE2FBF80B3992736E096958795A3
S1132BA03A95E1F7182F11709091AC018091AD0125
S1132BB08917D9F01917C9F484E090E090931601AD
S1132BC0809315018FB7F894992721E0209317017A
S1132BD08FBF60E070E08DE10E94070E0E94D40A6E
S1132BE0C09AC09882E00E948E011093AD0187E0E4
S1132BF044C48FB7F8949927109102018FBF123003
S1132C0009F465C0133030F4112359F0113009F080
S1132C1090C448C0133009F474C0143009F089C456
S1132C20A0C0C0988FB7F894082F11278091150180
S1132C3090911601029709F0A8C383E090E0909365
S1132C4016018093150168E170E08DE10E94070E82
S1132C5081E08093AC011092170180B3992726E09C
S1132C60969587952A95E1F7817090708093AD01D0
S1132C7087E00E948E0181E00E944C0C6FE772E0B5
S1132C808CE10E94070E0E94680E0E942E0E66E5DB
S1132C907AE287E10E94070E6FEF70E885E10E94F7
S1132CA0070E73C3C09886E00E944C0C0E94680E05
S1132CB00E942E0E0E94D40AC09AC09883E00E94FB
S1132CC04C0CC09A81E00E94730D86E0D6C3C09874
S1132CD08FB7F894082F112760E080E00E948102EA
S1132CE0882311F00FBF0AC00FBF83E50E94F002D2
S1132CF080E00E94F00280E00E94F002C09A82E02C
S1132D002DC08FB7F894992720911A018FBF2430D2
S1132D1039F0283041F0223001F50E94790E09C4BF
S1132D200E94191106C4C09889E00E944C0CC09AF4
S1132D3083E00E94730D8FB7F894992721E030E067
S1132D4030931B0120931A018FBF8FB7F8949927F2
S1132D50109314018FBF84E090C383E00E94730D2D
S1132D60E8C30E94990CE5C30FB7F894112740916A
S1132D703501509136016091580270915902809149
S1132D80C2079091C30710925902109258021092F0
S1132D90C3071092C20710923601109235011092A7
S1132DA0DE011092DD0120E00E947411EEC22FB703
S1132DB0F8943327809171018093050182E0809318
S1132DC019012FBF80910501882309F0B2C3B89A75
S1132DD0C09888E052C3A0913201B0913301DC90D5
S1132DE09D012D0D311DF9018081881F8827881FC1
S1132DF0FD0183A7F90180818F77FD0181A721500F
S1132E003040F9018081FD0180A7A0913201B09189
S1132E103301FD0132818FB7F894992720916F0116
S1132E208FBF222309F490C0832F99279695879505
S1132E3096958795837090708230910541F58781CE
S1132E4046812FB7F89433276091AA017091AB01A2
S1132E502FBF9927982F88275527842B952B8617C2
S1132E60970719F481E090E06CC0FD018781268109
S1132E7040E050E09927982F88273327822B932B03
S1132E808F5F9F4F11F441E050E0CA015AC003978D
S1132E9009F006C19E012F5F3F4F4AE652E088E0E9
S1132EA0FA010190AF01F90101929F018150C1F72C
S1132EB09E012F5D3F4FAE014F5F5F4F88E0FA01E7
S1132EC00190AF01F90101929F018150C1F79E0168
S1132ED0275F3F4FAE014F5D5F4F88E0FA010190DD
S1132EE0AF01F90101929F018150C1F79E012F5E4C
S1132EF03F4FAE01475F5F4F88E0FA010190AF0199
S1132F00F90101929F018150C1F79E01275E3F4F55
S1132F10AE014F5E5F4F88E0FA010190AF01F90105
S1132F2001929F018150C1F748E050E0BE01675E05
S1132F307F4FCD0106960E940920892B09F0B0C06D
S1132F4003C0882309F4ACC0FCE0FD1508F0A8C058
S1132F50E0903201F0903301F7012281822F99270A
S1132F6036E0969587953A95E1F7039719F468E06A
S1132F7070E002C062E070E0822F992796958795F1
S1132F809695879583709070039719F488E090E084
S1132F9002C082E090E026E030E0E20EF31E40E062
S1132FA050E020E030E0F701E80FF91F8AEF9FEFCF
S1132FB0E80EF91E05C08191480F511D2F5F3F4F48
S1132FC026173707C4F3F70163818FEF8093C00797
S1132FD08FB7F894782F20E030E0EDE3F1E08081C2
S1132FE091818417950729F48281861731F1209302
S1132FF0C0072F5F3F4F33962430310581F77FBFE1
S11330009091C0073FB7F8949F3F21F080911D0134
S11330108917A9F420911D01822F9927FC01EE0F35
S1133020FF1FE80FF91FE35CFE4F51834083628367
S11330302F5F237020931D010EC07FBF2DC0892FE9
S11330409927FC01EE0FFF1FE80FF91FE35CFE4F09
S1133050518340836283832F99278FBF0FB7F894DE
S11330601127C7010E942302FC0190810FBFF701C1
S113307083A5882389F09F3379F4AD2DAD50870162
S1133080045F1F4F2FB7F89433272FBF4A2FB8017F
S1133090C7010E94DF0B7C01F0923301E092320100
S11330A08FB7F894992710928C018FBF0E94C10D9D
S11330B040C280916D01882361F520915F073091B2
S11330C060074091610750916207EFB7F894FF27BA
S11330D0609160027091610280916202909163023A
S11330E0E0904D01F0904E0100914F01109150017C
S11330F06E0D7F1D801F911FEFBF20935F073093DC
S11331006007409361075093620710926D010E941B
S113311077040E9492033AC00E9492037B018C01BF
S11331208FB7F89499271092D4018FBF8091EF0143
S113313081FFFFC18091E7019091E801A091E9012D
S1133140B091EA01A8019701281B390B4A0B5B0BCC
S1133150DA01C9012091EB013091EC014091ED01BC
S11331605091EE01281B390B4A0B5B0B2F3F8FEF5D
S113317038078FEF48078FE7580709F4DAC11216AA
S11331801306140615062CF0C801B7010E94B903F2
S1133190D0C120935F073093600740936107509339
S11331A0620781E080936D01C801B7010E94770432
S11331B0C0C190919B0180910901981709F4B9C18C
S11331C0909309019923D1F400911E0110911F01DC
S11331D06091B801C8010E94BF0E482F55274423AF
S11331E009F4A7C18FEF8093090160911E017091CA
S11331F01F01F80183850E94B60B9BC18FEF80935A
S1133200090197C18FB7F8941092C60720915B0209
S113321040E0283009F441E030E0293009F431E09D
S1133220442311F4332351F010925B02E091E60140
S1133230FF27EE0FFF1FEC54FE4F108299278FBF1C
S1133240442311F4332331F19FB7F8948091BB07E1
S11332508F5F8093BB078091A501833479F420911B
S1133260D6018091D501821779F0822F8F5F8093E8
S1133270D601863048F01092D60106C0A0E044235F
S113328009F4A1E071E002C0A0E070E0892F992761
S11332908FBF06C0222311F0FF246DC0A0E070E0B0
S11332A08FB7F8949927209120018FBF222341F0F2
S11332B08FB7F89499272AE020935B028FBF42C00E
S11332C08FB7F89499276091B4014091B6018FBFEC
S11332D08FB7F894282F332750E09091D50180912F
S11332E0D601981709F451E02FBF552341F5662301
S11332F031F55FB7F89482E08093B4018FB7F89406
S1133300282F332740E09091D5018091D60198175A
S113331009F441E02FBF442311F080E006C0E0919E
S1133320D601FF27EB52FE4F82818093B50183E4DF
S11333308093A5011092E601852F99270EC0415074
S1133340423010F0FF240CC08FB7F894992725E47D
S11333502093A50121E02093E6018FBFE1E0FE2E3A
S1133360772349F08FB7F8949927A09329018FBF49
S113337083E10E948E018FB7F894082F1127809162
S11333805B028A3021F40E94B5010FBFD2C00FBF87
S1133390FF2009F4CEC02FB7F89433271092CD073D
S11333A01092CC0710929F0181E080935B022FBFA3
S11333B00E94FB01882309F4BCC08FB7F8949927B5
S11333C029E020935B028FBF0E940F02B2C056987F
S11333D0579810925A0210929001539A549A579AFD
S11333E08FB7F894992710925B0210928D018FBFCA
S11333F010929C019EC082E140C05398549899C099
S113340010922601109225018FB7F89499272091E4
S113341029018FBF80912A01811123E0409123016A
S11334205091240180912B01882309F082C022232A
S113343019F00E94850120C03FB7F89420915C02E6
S1133440E22FFF27EE0FFF1FEE58FE4F8081918180
S11334504817590771F4822F8F5F80935C028C3078
S113346010F010925C0280919C01882311F010925C
S11334709C01832F99278FBF80E00E948E0159C041
S11334808FB7F894992720912D0100912E01109166
S11334902F01D09052018FBF2223A1F5CFB6F8940B
S11334A080914B01882339F580913401E82FFF275F
S11334B0EE0FFF1FE454FE4FE080F1801183008380
S11334C08F5F809334018C3010F01092340190910E
S11334D034018091D007981719F481E080934B014F
S11334E080913C01882351F481E00E948E0181E0A7
S11334F080933C0103C00E94850178018C2D99279B
S11335008FBF87018FB7F894ED2DFF27EE0FFF1FB4
S1133510E35FFE4F1183008320912101DD2011F030
S11335202B7F01C02D7F2093210110922C0199271C
S11335308FBFA8960FB6F894DEBF0FBECDBFDF9144
S1133540CF911F910F91FF90EF90DF90CF9008954E
S11335508091B8078F3FB1F0282F3327F901EC5A37
S1133560FE4F80818093B8078F3F11F48093CA0780
S11335708FEF80832F3F31F0822F0E94801381E0F0
S113358090E0089580E090E00895FF920F931F93D8
S1133590CF93DF93CDB7DEB7E0970FB6F894DEBFD5
S11335A00FBECDBFFFB6F89445E150E06FEF70E079
S11335B084E591E00E9416208FEF8093B8078093F2
S11335C0CA0781E08EBD88E080BF83E083BF8CB5ED
S11335D09DB54AE72CB53DB52817390708F4415085
S11335E0442311F0C901F6CF92B782B78917E9F3E2
S11335F02CB53DB592B782B78917E9F38CB59DB563
S1133600821B930B409635E0969587953A95E1F7A2
S11336109093BA078093B90713BE83B78EBD8EB556
S113362080BF12BE1DBC1CBC8FEF86BF86B78093C3
S11336307C0080B7992787709070892BD1F7D29A34
S1133640D19AD09ADA9AD99AD89A15BA8FEF84BBBC
S1133650D498DC98109289001092880080917D00A3
S1133660846080937D0080918A00887F826080934B
S11336708A001DBC1CBC87B7846087BF8EB5887F59
S113368084608EBD0E94A81A8823E1F712E006E048
S11336906091B9077091BA07882799272CE0660FC3
S11336A0771F881F991F2A95D1F720E031EE40E05B
S11336B050E00E94911F2150304029B9832F99274F
S11336C0809390001BB9009395001AB82093990039
S11336D08093980010939B0000939D0010929A0091
S11336E084E490E090935B0780935A071092B401AE
S11336F01092B6018AE080935B0210929F011092AF
S1133700A5011092BB071092CD071092CC0710921E
S1133710C6071092E601109256071092550784E0EE
S113372080938D0110925E0210925E0710929101B7
S11337301092E2011092E1011092D6011092D5018B
S11337408FEF80938A01EDE3F1E08FEF9FEF918398
S113375080831282339621E0E934F207C1F70E9494
S1133760AC046093E40480910001909101010196FE
S1133770AA27BB278093970190939801A09399015E
S1133780B0939A0180B7886080BF8BE083BF86EED8
S113379081BF87B7826087BF0E94F40383E897E004
S11337A090933301809332018E98B89A8C988FEF5E
S11337B08093A40110926402109265021092660232
S11337C010926702B89AD69AD59A8FB7F894992727
S11337D020910601309107018FBF3093AB012093F4
S11337E0AA010E94580629A73AA74BA75CA76DA770
S11337F07EA78FA798ABDE019196FE01B99688E06B
S113380001900D928150E1F7DE015196FE01B196CF
S113381088E001900D928150E1F7DE015996FE0196
S1133820719688E001900D928150E1F7AAE6B2E02A
S1133830FE01799688E001900D928150E1F7809124
S11338400801992790939301809392018FE18093CB
S11338505F028AE18093E2040E94580629A73AA7EE
S11338604BA75CA76DA77EA78FA798ABDE019196A7
S1133870FE01B99688E001900D928150E1F7DE01D6
S11338801196FE01B19688E001900D928150E1F706
S1133890DE011996FE01319688E001900D92815067
S11338A0E1F7AAE6B2E0FE01399688E001900D92B4
S11338B08150E1F7AAE6B2E0FD0137969C91808140
S11338C08D939083319782E0ED36F807B9F7109223
S11338D06F011092C10710929401109269020E9424
S11338E0A81A8823E1F78F2D99278FBF7894E2E7F0
S11338F0F1E085EE94E081939193C49621E0EA3857
S1133900F207C9F710925C0210924C011092BD07A5
S113391081E080939C01ECEBF1E082E792E08193FB
S11339209193C49621E0E43DF207C9F71092D007C1
S11339301092340110923C0181E080934B0161E0CC
S11339400E9467028823E9F48FB7F894282F33275D
S11339508091150190911601892B11F02FBF1CC085
S113396081E090E090931601809315012FBFDD9ABA
S11339700E942C0524E130E040E050E00E94E9057B
S11339800BC062E081E00E948102882309F084C0B8
S113399061E081E00E9481028FB7F894282F3327D9
S11339A0922F80915B028A3041F080918D018430A6
S11339B021F02FBF10929C0104C09FBF80E10E94A0
S11339C08E018FB7F894482F55274BC087B7992796
S11339D083709070892B19F4E5E0F0E013C080B790
S11339E0992787709070892BD1F781B792B7891B7B
S11339F08C3030F082B7853F18F4E3E0F0E002C089
S1133A00E2E0F0E087B7887BC1F480917D008B7F92
S1133A10A1F46E9912C08AB190919A00892B887191
S1133A2061F48091740082FD08C0379B03C081E07B
S1133A3090E005C085E090E002C080E090E025B70A
S1133A408E1708F4E82FFF27EA54FD4FE491237EF4
S1133A502062E22BE5BF78948895F89485B78F7D32
S1133A6085BF8091B8078F3F09F4B0CF282F332743
S1133A70F901EC5AFE4F80818093B8078F3F11F40F
S1133A808093CA078FEF80832F3F09F49FCF4FBFE6
S1133A90822F0E94801395CF10924B017DCF789492
S1133AA01F920F920FB60F9211241F932F933F93DF
S1133AB04F935F936F937F938F939F93AF93BF9332
S1133AC0EF93FF9387B78F7E87BF78941FB7F894DF
S1133AD08091A0019091A101A091A201B091A301B4
S1133AE00097A105B10509F051C080911A01909188
S1133AF01B018530910561F18630910530F48330E6
S1133B00910549F0049781F51AC087309105F1F0C9
S1133B10089751F514C0869B0FC084E090E0909301
S1133B201B0180931A010E942C0527E030E040E03D
S1133B3050E00E94E90518C00E94EF1015C00E94D1
S1133B40A70B882389F40E9419110EC080E00AC0D3
S1133B5089E00E944C0C81E00E94450683E00E94AB
S1133B60730D87E00E945C0D809115019091160100
S1133B70019771F482E090E090931601809315010F
S1133B80DE98DE9A80E00E944F0B02C00E94490535
S1133B90812F99278FBFFF91EF91BF91AF919F9193
S1133BA08F917F916F915F914F913F912F911F91D1
S1133BB00F900FBE0F901F901895ACE2B0E0E3EEAB
S1133BC0FDE10C94D21F222E332E442E552E662E48
S1133BD0772E882E992EFE013196A8E01192AA958F
S1133BE0E9F729823A824B825C826D827E828F82DF
S1133BF09886FE013996B8E01192BA95E9F7A9863C
S1133C00BA86CB86DC86ED86FE860F87188B898183
S1133C109A81AB81BC8189A79AA7ABA7BCA77C0179
S1133C208D018FEF9FEFA0E0B0E0E822F9220A2394
S1133C301B2389A59AA5ABA5BCA51D014424552425
S1133C4089859A85AB85BC858DA39EA3AFA3B8A7B0
S1133C505C016D018FEF9FEFA0E0B0E0A822B922D4
S1133C60CA22DB228DA19EA1AFA1B8A53D01882463
S1133C709924C801B701A60195010E94B31F69A345
S1133C807AA38BA39CA3C801B701A40193010E944A
S1133C90B31F7B018C01C201B101A60195010E94F1
S1133CA0B31F5B016C01C201B101A40193010E9425
S1133CB0B31F3B014C01EA0CFB1C0C1D1D1D89A10B
S1133CC09AA1ABA1BCA19D01442755272E0D3F1DF0
S1133CD0401F511F2A153B054C055D0540F480E04B
S1133CE090E0A1E0B0E0680E791E8A1E9B1ECA0116
S1133CF0AA27BB27860D971DA81DB91D8D8F9E8FE2
S1133D00AF8FB8A3A9013327222789A19AA1ABA118
S1133D10BCA1A070B070280F391F4A1F5B1F298FE8
S1133D203A8F4B8F5C8FA98CBA8CCB8CDC8CED8C4E
S1133D30FE8C0F8D18A1FE01719698E011929A9550
S1133D40E9F7ED8AFE8A0F8B188F2D813E814F8112
S1133D5058856DA17EA18FA198A50E94B31F3B0138
S1133D604C012D853E854F85588969A57AA58BA57B
S1133D709CA50E94B31F2D893E894F89588D260F1B
S1133D80371F481F591F260D371D481D591D2D8BE0
S1133D903E8B4F8B588F6D887E888F88988C2A2D08
S1133DA03B2D4C2D5D2D662D772D882D992DE2E12F
S1133DB0AC960C94EE1FA0E1B0E0E1EEFEE10C94B1
S1133DC0D21F222E332E442E552E662E772E882E69
S1133DD0992E002309F466C088E0FE013196119201
S1133DE08A95E9F729833A834B835C836D837E83C9
S1133DF08F829887E0E2E01B1E16CCF52D813E8170
S1133E004F815885602F772767FD7095DA01C901C6
S1133E10062E04C0B695A795979587950A94D2F770
S1133E208D879E87AF87B88B04C0220F331F441F32
S1133E30551FEA95D2F789819A81AB81BC8104C070
S1133E40B695A795979587956A95D2F7282B392B20
S1133E504A2B5B2B29873A874B875C8729843A84D2
S1133E604B845C846D847E848F8498881BC01D86FB
S1133E701E861F86188A2E2F332727FD30953095EE
S1133E8021953F4F8D819E81AF81B88504C0B69541
S1133E90A795979587952A95D2F789879A87AB87AF
S1133EA0BC87DCCF222D332D442D552D662D772D47
S1133EB0882D992DE2E160960C94EE1F991B79E010
S1133EC004C0991F961708F0961B881F7A95C9F7A6
S1133ED080950895AA1BBB1B51E107C0AA1FBB1FF5
S1133EE0A617B70710F0A61BB70B881F991F5A9582
S1133EF0A9F780959095BC01CD01089597FB092EF3
S1133F0007260AD077FD04D0E5DF06D000201AF496
S1133F10709561957F4F0895F6F7909581959F4F21
S1133F200895A1E21A2EAA1BBB1BFD010DC0AA1FF6
S1133F30BB1FEE1FFF1FA217B307E407F50720F00E
S1133F40A21BB30BE40BF50B661F771F881F991F89
S1133F501A9469F760957095809590959B01AC01D2
S1133F60BD01CF010895629FD001739FF001829F2C
S1133F70E00DF11D649FE00DF11D929FF00D839FF4
S1133F80F00D749FF00D659FF00D9927729FB00D91
S1133F90E11DF91F639FB00DE11DF91FBD01CF01A4
S1133FA0112408952F923F924F925F926F927F92C5
S1133FB08F929F92AF92BF92CF92DF92EF92FF9235
S1133FC00F931F93CF93DF93CDB7DEB7CA1BDB0BE1
S1133FD00FB6F894DEBF0FBECDBF09942A88398886
S1133FE048885F846E847D848C849B84AA84B9848D
S1133FF0C884DF80EE80FD800C811B81AA81B98199
S1134000CE0FD11D0FB6F894DEBF0FBECDBFED01AC
S11340100895FB01DC0104C08D910190801921F405
S113402041505040C8F7881B990B0895DC0101C02A
S10F40306D9341505040E0F70895FFCF1D
S113403C0100FFFFFFFF010022FFFFFFFFF001243F
S107404C02F0010079
S9030000FC
